{
  "contractName": "CryptonomicaVerification",
  "abi": [
    {
      "constant": false,
      "inputs": [
        {
          "name": "_withdrawalAddress",
          "type": "address"
        }
      ],
      "name": "fixWithdrawalAddress",
      "outputs": [
        {
          "name": "",
          "type": "bool"
        }
      ],
      "payable": false,
      "stateMutability": "nonpayable",
      "type": "function"
    },
    {
      "constant": true,
      "inputs": [],
      "name": "priceForVerificationInWei",
      "outputs": [
        {
          "name": "",
          "type": "uint256"
        }
      ],
      "payable": false,
      "stateMutability": "view",
      "type": "function"
    },
    {
      "constant": false,
      "inputs": [
        {
          "name": "_signedString",
          "type": "string"
        }
      ],
      "name": "uploadSignedString",
      "outputs": [
        {
          "name": "",
          "type": "bool"
        }
      ],
      "payable": true,
      "stateMutability": "payable",
      "type": "function"
    },
    {
      "constant": false,
      "inputs": [
        {
          "name": "_withdrawalAddress",
          "type": "address"
        }
      ],
      "name": "setWithdrawalAddress",
      "outputs": [
        {
          "name": "",
          "type": "bool"
        }
      ],
      "payable": false,
      "stateMutability": "nonpayable",
      "type": "function"
    },
    {
      "constant": true,
      "inputs": [
        {
          "name": "",
          "type": "address"
        }
      ],
      "name": "signedString",
      "outputs": [
        {
          "name": "",
          "type": "string"
        }
      ],
      "payable": false,
      "stateMutability": "view",
      "type": "function"
    },
    {
      "constant": false,
      "inputs": [
        {
          "name": "acc",
          "type": "address"
        }
      ],
      "name": "addManager",
      "outputs": [
        {
          "name": "",
          "type": "bool"
        }
      ],
      "payable": false,
      "stateMutability": "nonpayable",
      "type": "function"
    },
    {
      "constant": true,
      "inputs": [
        {
          "name": "",
          "type": "address"
        }
      ],
      "name": "stringToSignRequestedOnUnixTime",
      "outputs": [
        {
          "name": "",
          "type": "uint256"
        }
      ],
      "payable": false,
      "stateMutability": "view",
      "type": "function"
    },
    {
      "constant": true,
      "inputs": [
        {
          "name": "",
          "type": "address"
        }
      ],
      "name": "verificationAddedOn",
      "outputs": [
        {
          "name": "",
          "type": "uint256"
        }
      ],
      "payable": false,
      "stateMutability": "view",
      "type": "function"
    },
    {
      "constant": true,
      "inputs": [
        {
          "name": "",
          "type": "address"
        }
      ],
      "name": "signedStringUploadedOnUnixTime",
      "outputs": [
        {
          "name": "",
          "type": "uint256"
        }
      ],
      "payable": false,
      "stateMutability": "view",
      "type": "function"
    },
    {
      "constant": true,
      "inputs": [
        {
          "name": "",
          "type": "address"
        }
      ],
      "name": "birthDate",
      "outputs": [
        {
          "name": "",
          "type": "uint256"
        }
      ],
      "payable": false,
      "stateMutability": "view",
      "type": "function"
    },
    {
      "constant": true,
      "inputs": [
        {
          "name": "str1",
          "type": "string"
        },
        {
          "name": "str2",
          "type": "string"
        }
      ],
      "name": "stringsConcatenation",
      "outputs": [
        {
          "name": "",
          "type": "string"
        }
      ],
      "payable": false,
      "stateMutability": "pure",
      "type": "function"
    },
    {
      "constant": false,
      "inputs": [
        {
          "name": "_newOwner",
          "type": "address"
        }
      ],
      "name": "changeOwnerStart",
      "outputs": [
        {
          "name": "",
          "type": "bool"
        }
      ],
      "payable": false,
      "stateMutability": "nonpayable",
      "type": "function"
    },
    {
      "constant": false,
      "inputs": [
        {
          "name": "acc",
          "type": "address"
        },
        {
          "name": "_keyCertificateValidUntil",
          "type": "uint256"
        },
        {
          "name": "_firstName",
          "type": "string"
        },
        {
          "name": "_lastName",
          "type": "string"
        },
        {
          "name": "_birthDate",
          "type": "uint256"
        },
        {
          "name": "_nationality",
          "type": "string"
        }
      ],
      "name": "addVerificationData",
      "outputs": [
        {
          "name": "",
          "type": "bool"
        }
      ],
      "payable": false,
      "stateMutability": "nonpayable",
      "type": "function"
    },
    {
      "constant": true,
      "inputs": [
        {
          "name": "",
          "type": "address"
        }
      ],
      "name": "keyCertificateValidUntil",
      "outputs": [
        {
          "name": "",
          "type": "uint256"
        }
      ],
      "payable": false,
      "stateMutability": "view",
      "type": "function"
    },
    {
      "constant": true,
      "inputs": [
        {
          "name": "_address",
          "type": "address"
        }
      ],
      "name": "addressToString",
      "outputs": [
        {
          "name": "",
          "type": "string"
        }
      ],
      "payable": false,
      "stateMutability": "pure",
      "type": "function"
    },
    {
      "constant": true,
      "inputs": [
        {
          "name": "",
          "type": "address"
        }
      ],
      "name": "fingerprint",
      "outputs": [
        {
          "name": "",
          "type": "bytes32"
        }
      ],
      "payable": false,
      "stateMutability": "view",
      "type": "function"
    },
    {
      "constant": true,
      "inputs": [
        {
          "name": "",
          "type": "address"
        }
      ],
      "name": "lastName",
      "outputs": [
        {
          "name": "",
          "type": "bytes32"
        }
      ],
      "payable": false,
      "stateMutability": "view",
      "type": "function"
    },
    {
      "constant": true,
      "inputs": [],
      "name": "withdrawalAddressFixed",
      "outputs": [
        {
          "name": "",
          "type": "bool"
        }
      ],
      "payable": false,
      "stateMutability": "view",
      "type": "function"
    },
    {
      "constant": true,
      "inputs": [
        {
          "name": "",
          "type": "address"
        }
      ],
      "name": "revokedOn",
      "outputs": [
        {
          "name": "",
          "type": "uint256"
        }
      ],
      "payable": false,
      "stateMutability": "view",
      "type": "function"
    },
    {
      "constant": true,
      "inputs": [],
      "name": "owner",
      "outputs": [
        {
          "name": "",
          "type": "address"
        }
      ],
      "payable": false,
      "stateMutability": "view",
      "type": "function"
    },
    {
      "constant": true,
      "inputs": [
        {
          "name": "_bytes32",
          "type": "bytes32"
        }
      ],
      "name": "bytes32ToString",
      "outputs": [
        {
          "name": "",
          "type": "string"
        }
      ],
      "payable": false,
      "stateMutability": "pure",
      "type": "function"
    },
    {
      "constant": true,
      "inputs": [
        {
          "name": "",
          "type": "address"
        }
      ],
      "name": "verification",
      "outputs": [
        {
          "name": "fingerprint",
          "type": "string"
        },
        {
          "name": "keyCertificateValidUntil",
          "type": "uint256"
        },
        {
          "name": "firstName",
          "type": "string"
        },
        {
          "name": "lastName",
          "type": "string"
        },
        {
          "name": "birthDate",
          "type": "uint256"
        },
        {
          "name": "nationality",
          "type": "string"
        },
        {
          "name": "verificationAddedOn",
          "type": "uint256"
        },
        {
          "name": "revokedOn",
          "type": "uint256"
        }
      ],
      "payable": false,
      "stateMutability": "view",
      "type": "function"
    },
    {
      "constant": false,
      "inputs": [],
      "name": "changeOwnerAccept",
      "outputs": [
        {
          "name": "",
          "type": "bool"
        }
      ],
      "payable": false,
      "stateMutability": "nonpayable",
      "type": "function"
    },
    {
      "constant": true,
      "inputs": [
        {
          "name": "",
          "type": "address"
        }
      ],
      "name": "firstName",
      "outputs": [
        {
          "name": "",
          "type": "bytes32"
        }
      ],
      "payable": false,
      "stateMutability": "view",
      "type": "function"
    },
    {
      "constant": true,
      "inputs": [],
      "name": "messageSenderAddressToString",
      "outputs": [
        {
          "name": "",
          "type": "string"
        }
      ],
      "payable": false,
      "stateMutability": "view",
      "type": "function"
    },
    {
      "constant": false,
      "inputs": [
        {
          "name": "manager",
          "type": "address"
        }
      ],
      "name": "removeManager",
      "outputs": [
        {
          "name": "",
          "type": "bool"
        }
      ],
      "payable": false,
      "stateMutability": "nonpayable",
      "type": "function"
    },
    {
      "constant": false,
      "inputs": [],
      "name": "withdrawAllToWithdrawalAddress",
      "outputs": [
        {
          "name": "",
          "type": "bool"
        }
      ],
      "payable": false,
      "stateMutability": "nonpayable",
      "type": "function"
    },
    {
      "constant": false,
      "inputs": [
        {
          "name": "_fingerprint",
          "type": "string"
        }
      ],
      "name": "requestStringToSignWithKey",
      "outputs": [
        {
          "name": "",
          "type": "string"
        }
      ],
      "payable": false,
      "stateMutability": "nonpayable",
      "type": "function"
    },
    {
      "constant": true,
      "inputs": [
        {
          "name": "str1",
          "type": "string"
        },
        {
          "name": "str2",
          "type": "string"
        },
        {
          "name": "str3",
          "type": "string"
        }
      ],
      "name": "stringsJoin",
      "outputs": [
        {
          "name": "",
          "type": "string"
        }
      ],
      "payable": false,
      "stateMutability": "pure",
      "type": "function"
    },
    {
      "constant": true,
      "inputs": [
        {
          "name": "source",
          "type": "string"
        }
      ],
      "name": "stringToBytes32",
      "outputs": [
        {
          "name": "result",
          "type": "bytes32"
        }
      ],
      "payable": false,
      "stateMutability": "pure",
      "type": "function"
    },
    {
      "constant": true,
      "inputs": [
        {
          "name": "",
          "type": "address"
        }
      ],
      "name": "stringToSign",
      "outputs": [
        {
          "name": "",
          "type": "string"
        }
      ],
      "payable": false,
      "stateMutability": "view",
      "type": "function"
    },
    {
      "constant": true,
      "inputs": [
        {
          "name": "",
          "type": "address"
        }
      ],
      "name": "nationality",
      "outputs": [
        {
          "name": "",
          "type": "bytes32"
        }
      ],
      "payable": false,
      "stateMutability": "view",
      "type": "function"
    },
    {
      "constant": true,
      "inputs": [],
      "name": "withdrawalAddress",
      "outputs": [
        {
          "name": "",
          "type": "address"
        }
      ],
      "payable": false,
      "stateMutability": "view",
      "type": "function"
    },
    {
      "constant": true,
      "inputs": [
        {
          "name": "",
          "type": "address"
        }
      ],
      "name": "isManager",
      "outputs": [
        {
          "name": "",
          "type": "bool"
        }
      ],
      "payable": false,
      "stateMutability": "view",
      "type": "function"
    },
    {
      "constant": false,
      "inputs": [
        {
          "name": "acc",
          "type": "address"
        },
        {
          "name": "_fingerprint",
          "type": "string"
        }
      ],
      "name": "revokeVerification",
      "outputs": [
        {
          "name": "",
          "type": "bool"
        }
      ],
      "payable": false,
      "stateMutability": "nonpayable",
      "type": "function"
    },
    {
      "constant": false,
      "inputs": [
        {
          "name": "priceInWei",
          "type": "uint256"
        }
      ],
      "name": "setPriceForVerification",
      "outputs": [
        {
          "name": "",
          "type": "bool"
        }
      ],
      "payable": false,
      "stateMutability": "nonpayable",
      "type": "function"
    },
    {
      "inputs": [],
      "payable": false,
      "stateMutability": "nonpayable",
      "type": "constructor"
    },
    {
      "anonymous": false,
      "inputs": [
        {
          "indexed": true,
          "name": "forAccount",
          "type": "address"
        },
        {
          "indexed": true,
          "name": "forKeyFingerpint",
          "type": "string"
        },
        {
          "indexed": false,
          "name": "stringToSignProvided",
          "type": "string"
        }
      ],
      "name": "StringToSignRequested",
      "type": "event"
    },
    {
      "anonymous": false,
      "inputs": [
        {
          "indexed": true,
          "name": "fromAccount",
          "type": "address"
        },
        {
          "indexed": false,
          "name": "uploadedString",
          "type": "string"
        }
      ],
      "name": "SignedStringUploaded",
      "type": "event"
    },
    {
      "anonymous": false,
      "inputs": [
        {
          "indexed": true,
          "name": "forFingerprint",
          "type": "string"
        },
        {
          "indexed": true,
          "name": "verifiedAccount",
          "type": "address"
        },
        {
          "indexed": false,
          "name": "keyCertificateValidUntilUnixTime",
          "type": "uint256"
        },
        {
          "indexed": false,
          "name": "userFirstName",
          "type": "string"
        },
        {
          "indexed": false,
          "name": "userLastName",
          "type": "string"
        },
        {
          "indexed": false,
          "name": "userBirthDate",
          "type": "uint256"
        },
        {
          "indexed": false,
          "name": "userNationality",
          "type": "string"
        },
        {
          "indexed": false,
          "name": "verificationAddedByAccount",
          "type": "address"
        }
      ],
      "name": "VerificationAdded",
      "type": "event"
    },
    {
      "anonymous": false,
      "inputs": [
        {
          "indexed": true,
          "name": "revocedforAccount",
          "type": "address"
        },
        {
          "indexed": true,
          "name": "withFingerprint",
          "type": "string"
        },
        {
          "indexed": false,
          "name": "revokedOnUnixTime",
          "type": "uint256"
        },
        {
          "indexed": true,
          "name": "revokedBy",
          "type": "address"
        }
      ],
      "name": "VerificationRevoked",
      "type": "event"
    },
    {
      "anonymous": false,
      "inputs": [
        {
          "indexed": true,
          "name": "from",
          "type": "address"
        },
        {
          "indexed": true,
          "name": "to",
          "type": "address"
        }
      ],
      "name": "OwnerChanged",
      "type": "event"
    },
    {
      "anonymous": false,
      "inputs": [
        {
          "indexed": true,
          "name": "added",
          "type": "address"
        },
        {
          "indexed": true,
          "name": "addedBy",
          "type": "address"
        }
      ],
      "name": "ManagerAdded",
      "type": "event"
    },
    {
      "anonymous": false,
      "inputs": [
        {
          "indexed": true,
          "name": "removed",
          "type": "address"
        },
        {
          "indexed": true,
          "name": "removedBy",
          "type": "address"
        }
      ],
      "name": "ManagerRemoved",
      "type": "event"
    },
    {
      "anonymous": false,
      "inputs": [
        {
          "indexed": false,
          "name": "from",
          "type": "uint256"
        },
        {
          "indexed": false,
          "name": "to",
          "type": "uint256"
        },
        {
          "indexed": true,
          "name": "changedBy",
          "type": "address"
        }
      ],
      "name": "PriceChanged",
      "type": "event"
    },
    {
      "anonymous": false,
      "inputs": [
        {
          "indexed": true,
          "name": "to",
          "type": "address"
        },
        {
          "indexed": false,
          "name": "sumInWei",
          "type": "uint256"
        },
        {
          "indexed": true,
          "name": "by",
          "type": "address"
        },
        {
          "indexed": false,
          "name": "success",
          "type": "bool"
        }
      ],
      "name": "Withdrawal",
      "type": "event"
    },
    {
      "anonymous": false,
      "inputs": [
        {
          "indexed": true,
          "name": "from",
          "type": "address"
        },
        {
          "indexed": true,
          "name": "to",
          "type": "address"
        },
        {
          "indexed": true,
          "name": "changedBy",
          "type": "address"
        }
      ],
      "name": "WithdrawalAddressChanged",
      "type": "event"
    },
    {
      "anonymous": false,
      "inputs": [
        {
          "indexed": false,
          "name": "withdrawalAddressFixedAs",
          "type": "address"
        },
        {
          "indexed": false,
          "name": "fixedBy",
          "type": "address"
        }
      ],
      "name": "WithdrawalAddressFixed",
      "type": "event"
    }
  ],
  "bytecode": "0x60606040526000601060146101000a81548160ff021916908315150217905550341561002a57600080fd5b33600d60006101000a81548173ffffffffffffffffffffffffffffffffffffffff021916908373ffffffffffffffffffffffffffffffffffffffff1602179055506001600e60003373ffffffffffffffffffffffffffffffffffffffff1673ffffffffffffffffffffffffffffffffffffffff16815260200190815260200160002060006101000a81548160ff02191690831515021790555033601060006101000a81548173ffffffffffffffffffffffffffffffffffffffff021916908373ffffffffffffffffffffffffffffffffffffffff160217905550613d4f806101136000396000f3006060604052600436106101c2576000357c0100000000000000000000000000000000000000000000000000000000900463ffffffff16806302c29349146101c757806309905bdb146102185780630a29f5081461024157806321b8092e146102ab57806322652e05146102fc5780632d06177a146103ae57806334a00b27146103ff57806339b51e7c1461044c57806345d6f02e1461049957806347889c42146104e65780634978ac3f14610533578063546e19591461064c5780635569ca2d1461069d5780635b3d0bc1146107c95780635e57966d1461081657806361b027b0146108c857806365455fdc1461091d57806376e57d4b14610972578063836afead1461099f5780638da5cb5b146109ec5780639201de5514610a4157806392b4e13214610ae15780639538833c14610d675780639a159bf614610d945780639b5522a614610de9578063ac18de4314610e77578063b17a98b614610ec8578063be89d38514610ef5578063cc29f81114610fcb578063cfb5192814611127578063d61a86bf146111a0578063ec94526914611252578063f2bcd022146112a7578063f3ae2415146112fc578063f883e4781461134d578063fb20dc80146113e1575b600080fd5b34156101d257600080fd5b6101fe600480803573ffffffffffffffffffffffffffffffffffffffff1690602001909190505061141c565b604051808215151515815260200191505060405180910390f35b341561022357600080fd5b61022b6115cf565b6040518082815260200191505060405180910390f35b610291600480803590602001908201803590602001908080601f016020809104026020016040519081016040528093929190818152602001838380828437820191505050505050919050506115d5565b604051808215151515815260200191505060405180910390f35b34156102b657600080fd5b6102e2600480803573ffffffffffffffffffffffffffffffffffffffff16906020019091905050611830565b604051808215151515815260200191505060405180910390f35b341561030757600080fd5b610333600480803573ffffffffffffffffffffffffffffffffffffffff16906020019091905050611987565b6040518080602001828103825283818151815260200191508051906020019080838360005b83811015610373578082015181840152602081019050610358565b50505050905090810190601f1680156103a05780820380516001836020036101000a031916815260200191505b509250505060405180910390f35b34156103b957600080fd5b6103e5600480803573ffffffffffffffffffffffffffffffffffffffff16906020019091905050611a37565b604051808215151515815260200191505060405180910390f35b341561040a57600080fd5b610436600480803573ffffffffffffffffffffffffffffffffffffffff16906020019091905050611b50565b6040518082815260200191505060405180910390f35b341561045757600080fd5b610483600480803573ffffffffffffffffffffffffffffffffffffffff16906020019091905050611b68565b6040518082815260200191505060405180910390f35b34156104a457600080fd5b6104d0600480803573ffffffffffffffffffffffffffffffffffffffff16906020019091905050611b80565b6040518082815260200191505060405180910390f35b34156104f157600080fd5b61051d600480803573ffffffffffffffffffffffffffffffffffffffff16906020019091905050611b98565b6040518082815260200191505060405180910390f35b341561053e57600080fd5b6105d1600480803590602001908201803590602001908080601f0160208091040260200160405190810160405280939291908181526020018383808284378201915050505050509190803590602001908201803590602001908080601f01602080910402602001604051908101604052809392919081815260200183838082843782019150505050505091905050611bb0565b6040518080602001828103825283818151815260200191508051906020019080838360005b838110156106115780820151818401526020810190506105f6565b50505050905090810190601f16801561063e5780820380516001836020036101000a031916815260200191505b509250505060405180910390f35b341561065757600080fd5b610683600480803573ffffffffffffffffffffffffffffffffffffffff16906020019091905050611bda565b604051808215151515815260200191505060405180910390f35b34156106a857600080fd5b6107af600480803573ffffffffffffffffffffffffffffffffffffffff1690602001909190803590602001909190803590602001908201803590602001908080601f0160208091040260200160405190810160405280939291908181526020018383808284378201915050505050509190803590602001908201803590602001908080601f0160208091040260200160405190810160405280939291908181526020018383808284378201915050505050509190803590602001909190803590602001908201803590602001908080601f01602080910402602001604051908101604052809392919081815260200183838082843782019150505050505091905050611c82565b604051808215151515815260200191505060405180910390f35b34156107d457600080fd5b610800600480803573ffffffffffffffffffffffffffffffffffffffff1690602001909190505061255c565b6040518082815260200191505060405180910390f35b341561082157600080fd5b61084d600480803573ffffffffffffffffffffffffffffffffffffffff16906020019091905050612574565b6040518080602001828103825283818151815260200191508051906020019080838360005b8381101561088d578082015181840152602081019050610872565b50505050905090810190601f1680156108ba5780820380516001836020036101000a031916815260200191505b509250505060405180910390f35b34156108d357600080fd5b6108ff600480803573ffffffffffffffffffffffffffffffffffffffff169060200190919050506125ca565b60405180826000191660001916815260200191505060405180910390f35b341561092857600080fd5b610954600480803573ffffffffffffffffffffffffffffffffffffffff169060200190919050506125e2565b60405180826000191660001916815260200191505060405180910390f35b341561097d57600080fd5b6109856125fa565b604051808215151515815260200191505060405180910390f35b34156109aa57600080fd5b6109d6600480803573ffffffffffffffffffffffffffffffffffffffff1690602001909190505061260d565b6040518082815260200191505060405180910390f35b34156109f757600080fd5b6109ff612625565b604051808273ffffffffffffffffffffffffffffffffffffffff1673ffffffffffffffffffffffffffffffffffffffff16815260200191505060405180910390f35b3415610a4c57600080fd5b610a6660048080356000191690602001909190505061264b565b6040518080602001828103825283818151815260200191508051906020019080838360005b83811015610aa6578082015181840152602081019050610a8b565b50505050905090810190601f168015610ad35780820380516001836020036101000a031916815260200191505b509250505060405180910390f35b3415610aec57600080fd5b610b18600480803573ffffffffffffffffffffffffffffffffffffffff16906020019091905050612713565b604051808060200189815260200180602001806020018881526020018060200187815260200186815260200185810385528d818154600181600116156101000203166002900481526020019150805460018160011615610100020316600290048015610bc55780601f10610b9a57610100808354040283529160200191610bc5565b820191906000526020600020905b815481529060010190602001808311610ba857829003601f168201915b505085810384528b818154600181600116156101000203166002900481526020019150805460018160011615610100020316600290048015610c485780601f10610c1d57610100808354040283529160200191610c48565b820191906000526020600020905b815481529060010190602001808311610c2b57829003601f168201915b505085810383528a818154600181600116156101000203166002900481526020019150805460018160011615610100020316600290048015610ccb5780601f10610ca057610100808354040283529160200191610ccb565b820191906000526020600020905b815481529060010190602001808311610cae57829003601f168201915b5050858103825288818154600181600116156101000203166002900481526020019150805460018160011615610100020316600290048015610d4e5780601f10610d2357610100808354040283529160200191610d4e565b820191906000526020600020905b815481529060010190602001808311610d3157829003601f168201915b50509c5050505050505050505050505060405180910390f35b3415610d7257600080fd5b610d7a612757565b604051808215151515815260200191505060405180910390f35b3415610d9f57600080fd5b610dcb600480803573ffffffffffffffffffffffffffffffffffffffff169060200190919050506128bd565b60405180826000191660001916815260200191505060405180910390f35b3415610df457600080fd5b610dfc6128d5565b6040518080602001828103825283818151815260200191508051906020019080838360005b83811015610e3c578082015181840152602081019050610e21565b50505050905090810190601f168015610e695780820380516001836020036101000a031916815260200191505b509250505060405180910390f35b3415610e8257600080fd5b610eae600480803573ffffffffffffffffffffffffffffffffffffffff169060200190919050506128eb565b604051808215151515815260200191505060405180910390f35b3415610ed357600080fd5b610edb612a04565b604051808215151515815260200191505060405180910390f35b3415610f0057600080fd5b610f50600480803590602001908201803590602001908080601f01602080910402602001604051908101604052809392919081815260200183838082843782019150505050505091905050612bcf565b6040518080602001828103825283818151815260200191508051906020019080838360005b83811015610f90578082015181840152602081019050610f75565b50505050905090810190601f168015610fbd5780820380516001836020036101000a031916815260200191505b509250505060405180910390f35b3415610fd657600080fd5b6110ac600480803590602001908201803590602001908080601f0160208091040260200160405190810160405280939291908181526020018383808284378201915050505050509190803590602001908201803590602001908080601f0160208091040260200160405190810160405280939291908181526020018383808284378201915050505050509190803590602001908201803590602001908080601f01602080910402602001604051908101604052809392919081815260200183838082843782019150505050505091905050613089565b6040518080602001828103825283818151815260200191508051906020019080838360005b838110156110ec5780820151818401526020810190506110d1565b50505050905090810190601f1680156111195780820380516001836020036101000a031916815260200191505b509250505060405180910390f35b341561113257600080fd5b611182600480803590602001908201803590602001908080601f016020809104026020016040519081016040528093929190818152602001838380828437820191505050505050919050506131b9565b60405180826000191660001916815260200191505060405180910390f35b34156111ab57600080fd5b6111d7600480803573ffffffffffffffffffffffffffffffffffffffff169060200190919050506131c7565b6040518080602001828103825283818151815260200191508051906020019080838360005b838110156112175780820151818401526020810190506111fc565b50505050905090810190601f1680156112445780820380516001836020036101000a031916815260200191505b509250505060405180910390f35b341561125d57600080fd5b611289600480803573ffffffffffffffffffffffffffffffffffffffff16906020019091905050613277565b60405180826000191660001916815260200191505060405180910390f35b34156112b257600080fd5b6112ba61328f565b604051808273ffffffffffffffffffffffffffffffffffffffff1673ffffffffffffffffffffffffffffffffffffffff16815260200191505060405180910390f35b341561130757600080fd5b611333600480803573ffffffffffffffffffffffffffffffffffffffff169060200190919050506132b5565b604051808215151515815260200191505060405180910390f35b341561135857600080fd5b6113c7600480803573ffffffffffffffffffffffffffffffffffffffff1690602001909190803590602001908201803590602001908080601f016020809104026020016040519081016040528093929190818152602001838380828437820191505050505050919050506132d5565b604051808215151515815260200191505060405180910390f35b34156113ec57600080fd5b61140260048080359060200190919050506135f1565b604051808215151515815260200191505060405180910390f35b6000600d60009054906101000a900473ffffffffffffffffffffffffffffffffffffffff1673ffffffffffffffffffffffffffffffffffffffff163373ffffffffffffffffffffffffffffffffffffffff1614151561147a57600080fd5b8173ffffffffffffffffffffffffffffffffffffffff16601060009054906101000a900473ffffffffffffffffffffffffffffffffffffffff1673ffffffffffffffffffffffffffffffffffffffff161415156114d657600080fd5b601060149054906101000a900460ff161515156114f257600080fd5b6001601060146101000a81548160ff0219169083151502179055507fff51cf04e7fbddffc521b8673e9282b10a91c659c12eea9ef99182bd9a95ff71601060009054906101000a900473ffffffffffffffffffffffffffffffffffffffff1633604051808373ffffffffffffffffffffffffffffffffffffffff1673ffffffffffffffffffffffffffffffffffffffff1681526020018273ffffffffffffffffffffffffffffffffffffffff1673ffffffffffffffffffffffffffffffffffffffff1681526020019250505060405180910390a160019050919050565b600f5481565b6000600f543410156115e657600080fd5b6000600960003373ffffffffffffffffffffffffffffffffffffffff1673ffffffffffffffffffffffffffffffffffffffff16815260200190815260200160002054141561163357600080fd5b6000600a60003373ffffffffffffffffffffffffffffffffffffffff1673ffffffffffffffffffffffffffffffffffffffff1681526020019081526020016000205414151561168157600080fd5b81600b60003373ffffffffffffffffffffffffffffffffffffffff1673ffffffffffffffffffffffffffffffffffffffff16815260200190815260200160002090805190602001906116d4929190613c0e565b5042600a60003373ffffffffffffffffffffffffffffffffffffffff1673ffffffffffffffffffffffffffffffffffffffff168152602001908152602001600020819055503373ffffffffffffffffffffffffffffffffffffffff167fc8a9806458025c6b39a3365b2711f67211bc9c98672493f2f2119b0b6ace90f7600b60003373ffffffffffffffffffffffffffffffffffffffff1673ffffffffffffffffffffffffffffffffffffffff16815260200190815260200160002060405180806020018281038252838181546001816001161561010002031660029004815260200191508054600181600116156101000203166002900480156118195780601f106117ee57610100808354040283529160200191611819565b820191906000526020600020905b8154815290600101906020018083116117fc57829003601f168201915b50509250505060405180910390a260019050919050565b6000600d60009054906101000a900473ffffffffffffffffffffffffffffffffffffffff1673ffffffffffffffffffffffffffffffffffffffff163373ffffffffffffffffffffffffffffffffffffffff1614151561188e57600080fd5b601060149054906101000a900460ff161515156118aa57600080fd5b3373ffffffffffffffffffffffffffffffffffffffff168273ffffffffffffffffffffffffffffffffffffffff16601060009054906101000a900473ffffffffffffffffffffffffffffffffffffffff1673ffffffffffffffffffffffffffffffffffffffff167f15fc95cfd5d20b9661cf80c2719d8e3180bee6d89379a03b7b14ca6ac6adea9860405160405180910390a481601060006101000a81548173ffffffffffffffffffffffffffffffffffffffff021916908373ffffffffffffffffffffffffffffffffffffffff16021790555060019050919050565b600b6020528060005260406000206000915090508054600181600116156101000203166002900480601f016020809104026020016040519081016040528092919081815260200182805460018160011615610100020316600290048015611a2f5780601f10611a0457610100808354040283529160200191611a2f565b820191906000526020600020905b815481529060010190602001808311611a1257829003601f168201915b505050505081565b6000600d60009054906101000a900473ffffffffffffffffffffffffffffffffffffffff1673ffffffffffffffffffffffffffffffffffffffff163373ffffffffffffffffffffffffffffffffffffffff16141515611a9557600080fd5b6001600e60008473ffffffffffffffffffffffffffffffffffffffff1673ffffffffffffffffffffffffffffffffffffffff16815260200190815260200160002060006101000a81548160ff0219169083151502179055503373ffffffffffffffffffffffffffffffffffffffff168273ffffffffffffffffffffffffffffffffffffffff167f05a4006f300442cf8b7fdb885f5ee958812020bffb5c5a8e655fde64e5f987ed60405160405180910390a360019050919050565b60096020528060005260406000206000915090505481565b60066020528060005260406000206000915090505481565b600a6020528060005260406000206000915090505481565b60046020528060005260406000206000915090505481565b611bb8613c8e565b611bd2611bc4846136ba565b611bcd846136ba565b6136e8565b905092915050565b6000600d60009054906101000a900473ffffffffffffffffffffffffffffffffffffffff1673ffffffffffffffffffffffffffffffffffffffff163373ffffffffffffffffffffffffffffffffffffffff16141515611c3857600080fd5b81601160006101000a81548173ffffffffffffffffffffffffffffffffffffffff021916908373ffffffffffffffffffffffffffffffffffffffff16021790555060019050919050565b6000600e60003373ffffffffffffffffffffffffffffffffffffffff1673ffffffffffffffffffffffffffffffffffffffff16815260200190815260200160002060009054906101000a900460ff161515611cdc57600080fd5b6020855111151515611ced57600080fd5b6020845111151515611cfe57600080fd5b60028251141515611d0e57600080fd5b6000600a60008973ffffffffffffffffffffffffffffffffffffffff1673ffffffffffffffffffffffffffffffffffffffff1681526020019081526020016000205414151515611d5d57600080fd5b6000600660008973ffffffffffffffffffffffffffffffffffffffff1673ffffffffffffffffffffffffffffffffffffffff16815260200190815260200160002054141515611dab57600080fd5b85600160008973ffffffffffffffffffffffffffffffffffffffff1673ffffffffffffffffffffffffffffffffffffffff168152602001908152602001600020819055600c60008973ffffffffffffffffffffffffffffffffffffffff1673ffffffffffffffffffffffffffffffffffffffff1681526020019081526020016000206001018190555084600c60008973ffffffffffffffffffffffffffffffffffffffff1673ffffffffffffffffffffffffffffffffffffffff1681526020019081526020016000206002019080519060200190611e8a929190613c0e565b50611e94856131b9565b600260008973ffffffffffffffffffffffffffffffffffffffff1673ffffffffffffffffffffffffffffffffffffffff168152602001908152602001600020816000191690555083600c60008973ffffffffffffffffffffffffffffffffffffffff1673ffffffffffffffffffffffffffffffffffffffff1681526020019081526020016000206003019080519060200190611f31929190613c0e565b50611f3b846131b9565b600360008973ffffffffffffffffffffffffffffffffffffffff1673ffffffffffffffffffffffffffffffffffffffff168152602001908152602001600020816000191690555082600460008973ffffffffffffffffffffffffffffffffffffffff1673ffffffffffffffffffffffffffffffffffffffff168152602001908152602001600020819055600c60008973ffffffffffffffffffffffffffffffffffffffff1673ffffffffffffffffffffffffffffffffffffffff1681526020019081526020016000206004018190555081600c60008973ffffffffffffffffffffffffffffffffffffffff1673ffffffffffffffffffffffffffffffffffffffff1681526020019081526020016000206005019080519060200190612061929190613c0e565b5061206b826131b9565b600560008973ffffffffffffffffffffffffffffffffffffffff1673ffffffffffffffffffffffffffffffffffffffff168152602001908152602001600020816000191690555042600660008973ffffffffffffffffffffffffffffffffffffffff1673ffffffffffffffffffffffffffffffffffffffff168152602001908152602001600020819055600c60008973ffffffffffffffffffffffffffffffffffffffff1673ffffffffffffffffffffffffffffffffffffffff168152602001908152602001600020600601819055508673ffffffffffffffffffffffffffffffffffffffff16600c60008973ffffffffffffffffffffffffffffffffffffffff1673ffffffffffffffffffffffffffffffffffffffff16815260200190815260200160002060000160405180828054600181600116156101000203166002900480156121ef5780601f106121cd5761010080835404028352918201916121ef565b820191906000526020600020905b8154815290600101906020018083116121db575b505091505060405180910390207f2d409d50cee634403fd5b6ab17fdecb0f3cff81c7b05d1b7dc24c04e15153874600160008b73ffffffffffffffffffffffffffffffffffffffff1673ffffffffffffffffffffffffffffffffffffffff16815260200190815260200160002054600c60008c73ffffffffffffffffffffffffffffffffffffffff1673ffffffffffffffffffffffffffffffffffffffff168152602001908152602001600020600201600c60008d73ffffffffffffffffffffffffffffffffffffffff1673ffffffffffffffffffffffffffffffffffffffff168152602001908152602001600020600301600460008e73ffffffffffffffffffffffffffffffffffffffff1673ffffffffffffffffffffffffffffffffffffffff16815260200190815260200160002054600c60008f73ffffffffffffffffffffffffffffffffffffffff1673ffffffffffffffffffffffffffffffffffffffff16815260200190815260200160002060050133604051808781526020018060200180602001868152602001806020018573ffffffffffffffffffffffffffffffffffffffff1673ffffffffffffffffffffffffffffffffffffffff1681526020018481038452898181546001816001161561010002031660029004815260200191508054600181600116156101000203166002900480156124335780601f1061240857610100808354040283529160200191612433565b820191906000526020600020905b81548152906001019060200180831161241657829003601f168201915b50508481038352888181546001816001161561010002031660029004815260200191508054600181600116156101000203166002900480156124b65780601f1061248b576101008083540402835291602001916124b6565b820191906000526020600020905b81548152906001019060200180831161249957829003601f168201915b50508481038252868181546001816001161561010002031660029004815260200191508054600181600116156101000203166002900480156125395780601f1061250e57610100808354040283529160200191612539565b820191906000526020600020905b81548152906001019060200180831161251c57829003601f168201915b5050995050505050505050505060405180910390a3600190509695505050505050565b60016020528060005260406000206000915090505481565b61257c613c8e565b6125c36040805190810160405280600281526020017f30780000000000000000000000000000000000000000000000000000000000008152506125be84613766565b611bb0565b9050919050565b60006020528060005260406000206000915090505481565b60036020528060005260406000206000915090505481565b601060149054906101000a900460ff1681565b60076020528060005260406000206000915090505481565b600d60009054906101000a900473ffffffffffffffffffffffffffffffffffffffff1681565b612653613c8e565b61265b613ca2565b6000602060405180591061266c5750595b9080825280601f01601f191660200182016040525091505b602081101561270957838160208110151561269b57fe5b1a7f01000000000000000000000000000000000000000000000000000000000000000282828151811015156126cc57fe5b9060200101907effffffffffffffffffffffffffffffffffffffffffffffffffffffffffffff1916908160001a9053508080600101915050612684565b8192505050919050565b600c60205280600052604060002060009150905080600001908060010154908060020190806003019080600401549080600501908060060154908060070154905088565b6000601160009054906101000a900473ffffffffffffffffffffffffffffffffffffffff1673ffffffffffffffffffffffffffffffffffffffff163373ffffffffffffffffffffffffffffffffffffffff161415156127b557600080fd5b601160009054906101000a900473ffffffffffffffffffffffffffffffffffffffff1673ffffffffffffffffffffffffffffffffffffffff16600d60009054906101000a900473ffffffffffffffffffffffffffffffffffffffff1673ffffffffffffffffffffffffffffffffffffffff167fb532073b38c83145e3e5135377a08bf9aab55bc0fd7c1179cd4fb995d2a5159c60405160405180910390a3601160009054906101000a900473ffffffffffffffffffffffffffffffffffffffff16600d60006101000a81548173ffffffffffffffffffffffffffffffffffffffff021916908373ffffffffffffffffffffffffffffffffffffffff1602179055506001905090565b60026020528060005260406000206000915090505481565b6128dd613c8e565b6128e633612574565b905090565b6000600d60009054906101000a900473ffffffffffffffffffffffffffffffffffffffff1673ffffffffffffffffffffffffffffffffffffffff163373ffffffffffffffffffffffffffffffffffffffff1614151561294957600080fd5b6000600e60008473ffffffffffffffffffffffffffffffffffffffff1673ffffffffffffffffffffffffffffffffffffffff16815260200190815260200160002060006101000a81548160ff0219169083151502179055503373ffffffffffffffffffffffffffffffffffffffff168273ffffffffffffffffffffffffffffffffffffffff167f3e902a6ee93dd5b2d48bd1009c7701a481be512b1ef73dbed2f95ea44c59ea8860405160405180910390a360019050919050565b6000803073ffffffffffffffffffffffffffffffffffffffff16319050601060009054906101000a900473ffffffffffffffffffffffffffffffffffffffff1673ffffffffffffffffffffffffffffffffffffffff166108fc3073ffffffffffffffffffffffffffffffffffffffff16319081150290604051600060405180830381858888f193505050501515612b32573373ffffffffffffffffffffffffffffffffffffffff16601060009054906101000a900473ffffffffffffffffffffffffffffffffffffffff1673ffffffffffffffffffffffffffffffffffffffff167f78746de4b42c369479b14075849ee3378535cb810d96e74712e26a7924f7b02183600060405180838152602001821515151581526020019250505060405180910390a360009150612bcb565b3373ffffffffffffffffffffffffffffffffffffffff16601060009054906101000a900473ffffffffffffffffffffffffffffffffffffffff1673ffffffffffffffffffffffffffffffffffffffff167f78746de4b42c369479b14075849ee3378535cb810d96e74712e26a7924f7b02183600160405180838152602001821515151581526020019250505060405180910390a3600191505b5090565b612bd7613c8e565b612bdf613c8e565b612be7613c8e565b612bef613c8e565b6000600960003373ffffffffffffffffffffffffffffffffffffffff1673ffffffffffffffffffffffffffffffffffffffff16815260200190815260200160002054141515612c3d57600080fd5b42600960003373ffffffffffffffffffffffffffffffffffffffff1673ffffffffffffffffffffffffffffffffffffffff1681526020019081526020016000208190555060288551141515612c9157600080fd5b606060405190810160405280602181526020017f492068657265627920636f6e6669726d2074686174207468652061646472657381526020017f73000000000000000000000000000000000000000000000000000000000000008152509250612cf86128d5565b91506040805190810160405280601681526020017f6973206d7920457468657265756d2061646472657373000000000000000000008152509050612d3d838383613089565b600860003373ffffffffffffffffffffffffffffffffffffffff1673ffffffffffffffffffffffffffffffffffffffff1681526020019081526020016000209080519060200190612d8f929190613c0e565b50612d99856131b9565b6000803373ffffffffffffffffffffffffffffffffffffffff1673ffffffffffffffffffffffffffffffffffffffff168152602001908152602001600020816000191690555084600c60003373ffffffffffffffffffffffffffffffffffffffff1673ffffffffffffffffffffffffffffffffffffffff1681526020019081526020016000206000019080519060200190612e35929190613c0e565b50846040518082805190602001908083835b602083101515612e6c5780518252602082019150602081019050602083039250612e47565b6001836020036101000a03801982511681845116808217855250505050505090500191505060405180910390203373ffffffffffffffffffffffffffffffffffffffff167f3937ba338b899c5febd54744a75928d84dddd9017746f3fe421412cc51875528600860003373ffffffffffffffffffffffffffffffffffffffff1673ffffffffffffffffffffffffffffffffffffffff1681526020019081526020016000206040518080602001828103825283818154600181600116156101000203166002900481526020019150805460018160011615610100020316600290048015612f995780601f10612f6e57610100808354040283529160200191612f99565b820191906000526020600020905b815481529060010190602001808311612f7c57829003601f168201915b50509250505060405180910390a3600860003373ffffffffffffffffffffffffffffffffffffffff1673ffffffffffffffffffffffffffffffffffffffff1681526020019081526020016000208054600181600116156101000203166002900480601f01602080910402602001604051908101604052809291908181526020018280546001816001161561010002031660029004801561307a5780601f1061304f5761010080835404028352916020019161307a565b820191906000526020600020905b81548152906001019060200180831161305d57829003601f168201915b50505050509350505050919050565b613091613c8e565b613099613cb6565b6130a1613cd0565b6130a9613c8e565b6130e76040805190810160405280600181526020017f20000000000000000000000000000000000000000000000000000000000000008152506136ba565b925060036040518059106130f85750595b90808252806020026020018201604052801561312e57816020015b61311b613ce4565b8152602001906001900390816131135790505b50915061313a876136ba565b82600081518110151561314957fe5b9060200190602002018190525061315f866136ba565b82600181518110151561316e57fe5b90602001906020020181905250613184856136ba565b82600281518110151561319357fe5b906020019060200201819052506131aa8383613977565b90508093505050509392505050565b600060208201519050919050565b60086020528060005260406000206000915090508054600181600116156101000203166002900480601f01602080910402602001604051908101604052809291908181526020018280546001816001161561010002031660029004801561326f5780601f106132445761010080835404028352916020019161326f565b820191906000526020600020905b81548152906001019060200180831161325257829003601f168201915b505050505081565b60056020528060005260406000206000915090505481565b601060009054906101000a900473ffffffffffffffffffffffffffffffffffffffff1681565b600e6020528060005260406000206000915054906101000a900460ff1681565b60008273ffffffffffffffffffffffffffffffffffffffff163373ffffffffffffffffffffffffffffffffffffffff16148061335a5750600e60003373ffffffffffffffffffffffffffffffffffffffff1673ffffffffffffffffffffffffffffffffffffffff16815260200190815260200160002060009054906101000a900460ff165b151561336557600080fd5b6014825114151561337557600080fd5b816040518082805190602001908083835b6020831015156133ab5780518252602082019150602081019050602083039250613386565b6001836020036101000a038019825116818451168082178552505050505050905001915050604051809103902060001916600c60008573ffffffffffffffffffffffffffffffffffffffff1673ffffffffffffffffffffffffffffffffffffffff16815260200190815260200160002060000160405180828054600181600116156101000203166002900480156134795780601f10613457576101008083540402835291820191613479565b820191906000526020600020905b815481529060010190602001808311613465575b505091505060405180910390206000191614151561349657600080fd5b42600760008573ffffffffffffffffffffffffffffffffffffffff1673ffffffffffffffffffffffffffffffffffffffff168152602001908152602001600020819055600c60008573ffffffffffffffffffffffffffffffffffffffff1673ffffffffffffffffffffffffffffffffffffffff168152602001908152602001600020600701819055503373ffffffffffffffffffffffffffffffffffffffff16826040518082805190602001908083835b60208310151561356c5780518252602082019150602081019050602083039250613547565b6001836020036101000a03801982511681845116808217855250505050505090500191505060405180910390208473ffffffffffffffffffffffffffffffffffffffff167fc6f2b8565550ea0e6941e2f0f6b7e65e5eb1fdccb33e0c7815af0f3ce5669cff426040518082815260200191505060405180910390a46001905092915050565b600080600e60003373ffffffffffffffffffffffffffffffffffffffff1673ffffffffffffffffffffffffffffffffffffffff16815260200190815260200160002060009054906101000a900460ff16151561364c57600080fd5b600f54905082600f819055503373ffffffffffffffffffffffffffffffffffffffff167f665d155f71ad96c4a04629d54ef9fb27ef57911253588f2ee93474cd02fa3f5382600f54604051808381526020018281526020019250505060405180910390a26001915050919050565b6136c2613cb6565b600060208301905060408051908101604052808451815260200182815250915050919050565b6136f0613c8e565b6136f8613c8e565b600083600001518560000151016040518059106137125750595b9080825280601f01601f191660200182016040525091506020820190506137428186602001518760000151613ad3565b61375b8560000151820185602001518660000151613ad3565b819250505092915050565b61376e613c8e565b613776613ca2565b600080600080602860405180591061378b5750595b9080825280601f01601f19166020018201604052509450600093505b601484101561396a578360130360080260020a8773ffffffffffffffffffffffffffffffffffffffff168115156137da57fe5b047f01000000000000000000000000000000000000000000000000000000000000000292506010837f0100000000000000000000000000000000000000000000000000000000000000900460ff1681151561383157fe5b047f0100000000000000000000000000000000000000000000000000000000000000029150817f01000000000000000000000000000000000000000000000000000000000000009004601002837f01000000000000000000000000000000000000000000000000000000000000009004037f01000000000000000000000000000000000000000000000000000000000000000290506138cf82613b1e565b85856002028151811015156138e057fe5b9060200101907effffffffffffffffffffffffffffffffffffffffffffffffffffffffffffff1916908160001a90535061391981613b1e565b856001866002020181518110151561392d57fe5b9060200101907effffffffffffffffffffffffffffffffffffffffffffffffffffffffffffff1916908160001a90535083806001019450506137a7565b8495505050505050919050565b61397f613c8e565b60008061398a613c8e565b600080865114156139ad5760206040519081016040528060008152509450613ac9565b60018651038760000151029350600092505b85518310156139f55785838151811015156139d657fe5b90602001906020020151600001518401935082806001019350506139bf565b83604051805910613a035750595b9080825280601f01601f19166020018201604052509150602082019050600092505b8551831015613ac557613a6f818785815181101515613a4057fe5b90602001906020020151602001518886815181101515613a5c57fe5b9060200190602002015160000151613ad3565b8583815181101515613a7d57fe5b9060200190602002015160000151810190506001865103831015613ab857613aae8188602001518960000151613ad3565b8660000151810190505b8280600101935050613a25565b8194505b5050505092915050565b60005b602082101515613afb5782518452602084019350602083019250602082039150613ad6565b6001826020036101000a0390508019835116818551168181178652505050505050565b6000600a7f010000000000000000000000000000000000000000000000000000000000000002827effffffffffffffffffffffffffffffffffffffffffffffffffffffffffffff19161015613bbd576030827f01000000000000000000000000000000000000000000000000000000000000009004017f0100000000000000000000000000000000000000000000000000000000000000029050613c09565b6057827f01000000000000000000000000000000000000000000000000000000000000009004017f01000000000000000000000000000000000000000000000000000000000000000290505b919050565b828054600181600116156101000203166002900490600052602060002090601f016020900481019282601f10613c4f57805160ff1916838001178555613c7d565b82800160010185558215613c7d579182015b82811115613c7c578251825591602001919060010190613c61565b5b509050613c8a9190613cfe565b5090565b602060405190810160405280600081525090565b602060405190810160405280600081525090565b604080519081016040528060008152602001600081525090565b602060405190810160405280600081525090565b604080519081016040528060008152602001600081525090565b613d2091905b80821115613d1c576000816000905550600101613d04565b5090565b905600a165627a7a723058209f955b760df2f84b502049745c7e4a78056f7c4e4c3d0ef5e121d59180a310b40029",
  "source": "pragma solidity ^0.4.18;\n\n\n/*\ndeveloped by cryptonomica.net, 2017\nlast version: 2017-11-21\ngithub: https://github.com/Cryptonomica/\n*/\n\ncontract CryptonomicaVerification {\n\n    /* ---------------------- Verification Data */\n\n    // Ethereum address is connected to OpenPGP public key data from Cryptonomica.net\n    // Ethereum address can be connected to one OpenPGP key only, and one time only\n    // If OpenPGP key expires, user have to use another Ethereum address for new OpenPGP public key\n    // But user can verify multiple Ethereum accounts with the same OpenPGP key\n\n    // ---- mappings to store verification data, to make it accessible for other smart contracts\n    // we store sting data as bytes32 (http://solidity.readthedocs.io/en/develop/types.html#fixed-size-byte-arrays)\n    // !!! -> up to 32 ASCII letters,\n    // see: https://ethereum.stackexchange.com/questions/6729/how-many-letters-can-bytes32-keep\n\n    // OpenPGP Message Format https://tools.ietf.org/html/rfc4880#section-12.2 : \"A V4 fingerprint is the 160-bit SHA-1 hash ...\"\n    // thus fingerprint is fingerprint is 20 bytes, in hexadecimal 40 symbols string representation.\n    // fingerprints are stored as upper case strings like:\n    // 57A5FEE5A34D563B4B85ADF3CE369FD9E77173E5\n    // see: https://crypto.stackexchange.com/questions/32087/how-to-generate-fingerprint-for-pgp-public-key\n    mapping (address => bytes32) public fingerprint; // ..............................................................0\n    mapping (address => uint) public keyCertificateValidUntil; // unix time ..........................................1\n    mapping (address => bytes32) public firstName; // ................................................................2\n    mapping (address => bytes32) public lastName; // .................................................................3\n    mapping (address => uint) public birthDate; // unix time .........................................................4\n    // Nationality - from user passport or id document:\n    // 2-letter country codes defined in ISO 3166\n    // like returned by Locale.getISOCountries() in Java (upper case)\n    // see: https://en.wikipedia.org/wiki/ISO_3166-1_alpha-2\n    mapping (address => bytes32) public nationality; //      .........................................................5\n    mapping (address => uint256) public verificationAddedOn; // unix time ............................................6\n    mapping (address => uint256) public revokedOn; // unix time, returns uint256: 0 if verification is not revoked ...7\n\n    mapping (address => string) public stringToSign; // string\n    // (string to sign can be requested only one time for address\n    // if not yet requested value is 0 )\n    // unix time online converter: https://www.epochconverter.com\n    // for coders: http://www.convert-unix-time.com\n    mapping (address => uint256) public stringToSignRequestedOnUnixTime; //\n    mapping (address => uint256) public signedStringUploadedOnUnixTime; //\n    // this will be longer than 32 char, and have to be properly formatted (with \"\\n\")\n    mapping (address => string) public signedString; //\n\n    /* the same data as above stored as a struct:\n    struct will be returned as 'List' in web3j (only one function call needed) */\n    mapping (address => Verification) public verification;\n\n\n    struct Verification {\n    // all string have to be <= 32 chars\n    string fingerprint; // ..................................................0\n    uint keyCertificateValidUntil; // .......................................1\n    string firstName; // ....................................................2\n    string lastName;// ......................................................3\n    uint birthDate; //  .....................................................4\n    string nationality; //  .................................................5\n    uint verificationAddedOn;// .............................................6\n    uint revokedOn; // ......................................................7\n    }\n\n    /*  ---------------------------------- Administrative Data */\n\n    address public owner; // smart contract owner (super admin)\n    mapping (address => bool) public isManager; // list of managers\n\n    uint public priceForVerificationInWei; // see converter on https://etherconverter.online/\n\n    //    function priceForVerificationInEth() constant public returns (uint){\n    //        return priceForVerificationInWei / (10 ** 18);\n    //    }\n\n    address public withdrawalAddress; // address to send Ether from this contract\n    bool public withdrawalAddressFixed = false; // this can be smart contract with manages ETH from this SC\n\n    /* ------------------------------------------- Constructor */\n    // Constructor must be public or internal\n    function CryptonomicaVerification() public {\n        owner = msg.sender;\n        isManager[msg.sender] = true;\n        withdrawalAddress = msg.sender;\n    }\n\n    /* -------------------- Utility functions : ---------------------- */\n\n    function stringToBytes32(string memory source) public pure returns (bytes32 result) {\n\n        // require(bytes(source).length <= 32); // causes error\n        // but string have to be max 32 chars\n\n        // https://ethereum.stackexchange.com/questions/9603/understanding-mload-assembly-function\n        // http://solidity.readthedocs.io/en/latest/assembly.html\n        assembly {\n        result := mload(add(source, 32))\n        }\n    }\n\n    // see also:\n    // https://ethereum.stackexchange.com/questions/2519/how-to-convert-a-bytes32-to-string\n    // https://ethereum.stackexchange.com/questions/1081/how-to-concatenate-a-bytes32-array-to-a-string\n    function bytes32ToString(bytes32 _bytes32) public pure returns (string){\n        // string memory str = string(_bytes32);\n        // TypeError: Explicit type conversion not allowed from \"bytes32\" to \"string storage pointer\"\n        // thus we should convert bytes32 to bytes (to dynamically-sized byte array)\n        bytes memory bytesArray = new bytes(32);\n        for (uint256 i; i < 32; i++) {\n            bytesArray[i] = _bytes32[i];\n        }\n        return string(bytesArray);\n    }\n\n    /* ethereum address to string */\n    // https://ethereum.stackexchange.com/questions/8346/convert-address-to-string\n    // https://ethereum.stackexchange.com/a/8447/1964\n    function addressToAsciiString(address _address) private pure returns (string) {\n        bytes memory s = new bytes(40);\n        for (uint i = 0; i < 20; i++) {\n            byte b = byte(uint8(uint(_address) / (2 ** (8 * (19 - i)))));\n            byte hi = byte(uint8(b) / 16);\n            byte lo = byte(uint8(b) - 16 * uint8(hi));\n            s[2 * i] = char(hi);\n            s[2 * i + 1] = char(lo);\n        }\n        // without \"0x\"\n        return string(s);\n    } //\n    function char(byte b) private pure returns (byte c) {\n        if (b < 10) return byte(uint8(b) + 0x30);\n        else return byte(uint8(b) + 0x57);\n    }\n\n    function addressToString(address _address) public pure returns (string) {\n        return stringsConcatenation(\"0x\", addressToAsciiString(_address));\n    }\n\n    function messageSenderAddressToString() public constant returns (string){\n        return addressToString(msg.sender);\n    }\n\n    /* --------------------- strings functions begin        */\n    /* --- https://github.com/Arachnid/solidity-stringutils */\n\n    struct slice {uint _len; uint _ptr;}\n\n    function memcpy(uint dest, uint src, uint len) private pure {\n        for (; len >= 32; len -= 32) {\n            assembly {\n            mstore(dest, mload(src))\n            }\n            dest += 32;\n            src += 32;\n        }\n        uint mask = 256 ** (32 - len) - 1;\n        assembly {\n        let srcpart := and(mload(src), not(mask))\n        let destpart := and(mload(dest), mask)\n        mstore(dest, or(destpart, srcpart))\n        }\n    }\n\n    /*\n     * @dev Returns a slice containing the entire string.\n     * @param self The string to make a slice from.\n     * @return A newly allocated slice containing the entire string.\n     */\n    function toSlice(string self) internal pure returns (slice) {\n        uint ptr;\n        assembly {\n        ptr := add(self, 0x20)\n        }\n        return slice(bytes(self).length, ptr);\n    }\n\n    /*\n     * @dev Returns a newly allocated string containing the concatenation of `self` and `other`.\n     * @param self The first slice to concatenate.\n     * @param other The second slice to concatenate.\n     * @return The concatenation of the two strings.\n     */\n    function concat(slice self, slice other) internal pure returns (string) {\n        var ret = new string(self._len + other._len);\n        uint retptr;\n        assembly {retptr := add(ret, 32)}\n        memcpy(retptr, self._ptr, self._len);\n        memcpy(retptr + self._len, other._ptr, other._len);\n        return ret;\n    }\n\n    /*\n     * @dev Joins an array of slices, using `self` as a delimiter, returning a newly allocated string.\n     * @param self The delimiter to use.\n     * @param parts A list of slices to join.\n     * @return A newly allocated string containing all the slices in `parts`, joined with `self`.\n     */\n    function join(slice self, slice[] parts) internal pure returns (string) {\n        if (parts.length == 0)\n        return \"\";\n        uint length = self._len * (parts.length - 1);\n        for (uint i = 0; i < parts.length; i++)\n        length += parts[i]._len;\n        var ret = new string(length);\n        uint retptr;\n        assembly {retptr := add(ret, 32)}\n        for (i = 0; i < parts.length; i++) {\n            memcpy(retptr, parts[i]._ptr, parts[i]._len);\n            retptr += parts[i]._len;\n            if (i < parts.length - 1) {\n                memcpy(retptr, self._ptr, self._len);\n                retptr += self._len;\n            }\n        }\n        return ret;\n    }\n    /* --------------------- strings -- end   */\n\n    function stringsConcatenation(string str1, string str2) public pure returns (string) {\n        return concat(toSlice(str1), toSlice(str2));\n    } //\n\n    function stringsJoin(string str1, string str2, string str3) public pure returns (string) {\n        slice memory delimiter = toSlice(\" \");\n        // see: http://solidity.readthedocs.io/en/v0.4.15/types.html#arrays\n        // http://solidity.readthedocs.io/en/v0.4.15/types.html#allocating-memory-arrays\n        slice[] memory slicesArray = new slice[](3);\n        slicesArray[0] = toSlice(str1);\n        slicesArray[1] = toSlice(str2);\n        slicesArray[2] = toSlice(str3);\n        string memory result = join(delimiter, slicesArray);\n        return result;\n    } //\n\n    /* -------------------- Verification functions : ---------------------- */\n\n    // from user acc:\n    // get unique string for verification request\n    // user have to sign a string representing bytes32,\n    // i.e. something like:\n    // \"0x3fa1c7685df6c89b5065bd8fd4d439492d4d3f451f15b8c14beed64689480e08\"\n    function requestStringToSignWithKey(string _fingerprint) public returns (string) {\n\n        // (!) string can be requested only one time for account\n        // if never requested, stringToSignRequestedOnUnixTime[msg.sender] value should be 0 (zero)\n        require(stringToSignRequestedOnUnixTime[msg.sender] == 0);\n        // store information about this request:\n        stringToSignRequestedOnUnixTime[msg.sender] = block.timestamp;\n\n        // fingerprint should be uppercase 40 symbols\n        require(bytes(_fingerprint).length == 40);\n\n        string memory str1 = \"I hereby confirm that the address\";\n        string memory str2 = messageSenderAddressToString();\n        string memory str3 = \"is my Ethereum address\";\n\n        stringToSign[msg.sender] = stringsJoin(str1, str2, str3);\n\n        // bytes32\n        fingerprint[msg.sender] = stringToBytes32(_fingerprint);\n        // string\n        verification[msg.sender].fingerprint = _fingerprint;\n\n        // event:\n        StringToSignRequested(msg.sender, _fingerprint, stringToSign[msg.sender]);\n\n        return stringToSign[msg.sender];\n    }\n\n    event StringToSignRequested(address indexed forAccount, string indexed forKeyFingerpint, string stringToSignProvided);\n\n    // ---\n    // from user acc\n    function uploadSignedString(string _signedString) public payable returns (bool) {\n\n        // check length of the uploaded string,\n        // it expected to be a 64 chars string signed with OpenPGP standard signature\n        // bytes: Dynamically-sized byte array,\n        // see: http://solidity.readthedocs.io/en/develop/types.html#dynamically-sized-byte-array\n        // if (bytes(_signedString).length > 1000) {//\n        //    revert();\n        //    // (payable)\n        // }\n        // --- not needed: if string is to big -> out of gas\n\n        // check payment :\n        if (msg.value < priceForVerificationInWei) {\n            revert();\n            // (payable)\n        }\n\n        // if never requested, stringToSignRequestedOnUnixTime[msg.sender] value should be 0 (zero)\n        if (stringToSignRequestedOnUnixTime[msg.sender] == 0) {\n            revert();\n            // (payable)\n        }\n\n        // if signed string already uploaded, should revert\n        if (signedStringUploadedOnUnixTime[msg.sender] != 0) {\n            revert();\n            // (payable)\n        }\n\n        // string\n        signedString[msg.sender] = _signedString;\n        // uint256 - Unix Time\n        signedStringUploadedOnUnixTime[msg.sender] = block.timestamp;\n\n        SignedStringUploaded(msg.sender, signedString[msg.sender]);\n\n        return true;\n    }\n\n    event SignedStringUploaded(address indexed fromAccount, string uploadedString);\n\n    // ---\n    // from 'manager' account only\n    function addVerificationData(\n    address acc, //\n    uint _keyCertificateValidUntil, //\n    string _firstName, //\n    string _lastName, //\n    uint _birthDate, //\n    string _nationality) public returns (bool) {\n\n        // (!!!) only manager can add verification data\n        require(isManager[msg.sender]);\n\n        // check input\n        // (we can check this also on front end)\n        require(bytes(_firstName).length <= 32);\n        require(bytes(_lastName).length <= 32);\n        require(bytes(_nationality).length == 2);\n        // like \"IL\" or \"US\"\n\n        // check if signed string uploaded\n        require(signedStringUploadedOnUnixTime[acc] != 0);\n        // to make possible adding verification only one time:\n        require(verificationAddedOn[acc] == 0);\n\n        // data added to verification[acc] and to the corresponding mappings\n        // uint\n        verification[acc].keyCertificateValidUntil = keyCertificateValidUntil[acc] = _keyCertificateValidUntil;\n\n        // string\n        verification[acc].firstName = _firstName;\n        // bytes32\n        firstName[acc] = stringToBytes32(_firstName);\n\n        // string\n        verification[acc].lastName = _lastName;\n        // bytes32\n        lastName[acc] = stringToBytes32(_lastName);\n\n        // uint (UNIX time)\n        verification[acc].birthDate = birthDate[acc] = _birthDate;\n\n        // string\n        verification[acc].nationality = _nationality;\n        // bytes32\n        nationality[acc] = stringToBytes32(_nationality);\n\n        // uint (UNIX time)\n        verification[acc].verificationAddedOn = verificationAddedOn[acc] = block.timestamp;\n\n\n        VerificationAdded(\n        verification[acc].fingerprint,\n        acc,\n        keyCertificateValidUntil[acc],\n        verification[acc].firstName,\n        verification[acc].lastName,\n        birthDate[acc],\n        verification[acc].nationality,\n        // stringToSignBytes32[acc],\n        // signedString[acc],\n        // verificationAddedOn[acc],\n        msg.sender\n        );\n\n        return true;\n    }\n\n    event VerificationAdded (\n    string indexed forFingerprint, // (1) indexed\n    address indexed verifiedAccount, // (2) indexed\n    uint keyCertificateValidUntilUnixTime,\n    string userFirstName,\n    string userLastName,\n    uint userBirthDate,\n    string userNationality, // (3) indexed\n    address verificationAddedByAccount\n    );\n\n    // ---\n    // from user or 'manager' account\n    function revokeVerification(address acc, string _fingerprint) public returns (bool) {\n\n        require(msg.sender == acc || isManager[msg.sender]);\n        require(bytes(_fingerprint).length == 20);\n\n        // string\n        require(keccak256(verification[acc].fingerprint) == keccak256(_fingerprint));\n\n        verification[acc].revokedOn = revokedOn[acc] = block.timestamp;\n\n        // event\n        VerificationRevoked(\n        acc,\n        _fingerprint,\n        block.timestamp,\n        msg.sender\n        );\n\n        return true;\n    }\n\n    event VerificationRevoked (\n    address indexed revocedforAccount,\n    string indexed withFingerprint,\n    uint revokedOnUnixTime,\n    address indexed revokedBy\n    );\n\n\n    /* -------------------- Administrative functions : ---------------------- */\n\n    // to avoid mistakes owner (super admin) should be changed in two steps\n    // change is valid when accepted from new owner address\n    address private newOwner;\n    // only owner\n    function changeOwnerStart(address _newOwner) public returns (bool) {\n        require(msg.sender == owner);\n        newOwner = _newOwner;\n        return true;\n    } //\n    // only by new owner\n    function changeOwnerAccept() public returns (bool) {\n        require(msg.sender == newOwner);\n        OwnerChanged(owner, newOwner);\n        owner = newOwner;\n        return true;\n    } //\n    event OwnerChanged(address indexed from, address indexed to);\n\n    // ---\n    // only owner\n    function addManager(address acc) public returns (bool) {\n        require(msg.sender == owner);\n        isManager[acc] = true;\n        ManagerAdded(acc, msg.sender);\n        return true;\n    }\n\n    event ManagerAdded (address indexed added, address indexed addedBy);\n\n    // ---\n    // only owner\n    function removeManager(address manager) public returns (bool) {\n        require(msg.sender == owner);\n        isManager[manager] = false;\n        ManagerRemoved(manager, msg.sender);\n        return true;\n    }\n\n    event ManagerRemoved(address indexed removed, address indexed removedBy);\n\n    // ---\n\n    function setPriceForVerification(uint priceInWei) public returns (bool) {\n        // see converter on https://etherconverter.online\n\n        // only by manager\n        require(isManager[msg.sender]);\n        uint oldPrice = priceForVerificationInWei;\n        priceForVerificationInWei = priceInWei;\n        PriceChanged(oldPrice, priceForVerificationInWei, msg.sender);\n        return true;\n    }\n\n    event PriceChanged(uint from, uint to, address indexed changedBy);\n\n    // ---\n    // ! can be called by any user\n    function withdrawAllToWithdrawalAddress() public returns (bool) {\n        // http://solidity.readthedocs.io/en/develop/security-considerations.html#sending-and-receiving-ether\n        // about <address>.send(uint256 amount) and <address>.transfer(uint256 amount)        //\n        // see: http://solidity.readthedocs.io/en/latest/units-and-global-variables.html?highlight=transfer#address-related\n        // https://ethereum.stackexchange.com/questions/19341/address-send-vs-address-transfer-best-practice-usage\n        uint sum = this.balance;\n        if (!withdrawalAddress.send(this.balance)) {// makes withdrawal and returns true or false\n            Withdrawal(withdrawalAddress, sum, msg.sender, false);\n            return false;\n        }\n        Withdrawal(withdrawalAddress, sum, msg.sender, true);\n        return true;\n    }\n\n    event Withdrawal(address indexed to, uint sumInWei, address indexed by, bool success);\n\n    // only owner\n    function setWithdrawalAddress(address _withdrawalAddress) public returns (bool) {\n\n        require(msg.sender == owner);\n        require(!withdrawalAddressFixed);\n\n        WithdrawalAddressChanged(withdrawalAddress, _withdrawalAddress, msg.sender);\n\n        withdrawalAddress = _withdrawalAddress;\n\n        return true;\n    }\n\n    event WithdrawalAddressChanged(address indexed from, address indexed to, address indexed changedBy);\n\n    // ---\n    // only owner\n    function fixWithdrawalAddress(address _withdrawalAddress) public returns (bool) {\n\n        require(msg.sender == owner);\n\n        require(withdrawalAddress == _withdrawalAddress);\n        require(!withdrawalAddressFixed);\n\n        withdrawalAddressFixed = true;\n        WithdrawalAddressFixed(withdrawalAddress, msg.sender);\n\n        return true;\n    }\n\n    // one time only\n    event WithdrawalAddressFixed(address withdrawalAddressFixedAs, address fixedBy);\n\n}\n",
  "sourcePath": "/home/viktor/Dropbox/GIT/CRYPTONOMICA/Ethereum-IdentityVerification/src/main/resources/contracts/CryptonomicaVerification.sol",
  "compiler": {
    "name": "solc",
    "version": "0.4.18+commit.9cf6e910.Emscripten.clang"
  },
  "schemaVersion": "1.0.1",
  "updatedAt": "2017-12-04T08:24:09.906Z"
}