{
  "contractName": "CryptonomicaVerification",
  "abi": [
    {
      "constant": true,
      "inputs": [],
      "name": "priceForVerificationInWei",
      "outputs": [
        {
          "name": "",
          "type": "uint256"
        }
      ],
      "payable": false,
      "stateMutability": "view",
      "type": "function"
    },
    {
      "constant": true,
      "inputs": [
        {
          "name": "",
          "type": "address"
        }
      ],
      "name": "signedString",
      "outputs": [
        {
          "name": "",
          "type": "string"
        }
      ],
      "payable": false,
      "stateMutability": "view",
      "type": "function"
    },
    {
      "constant": true,
      "inputs": [
        {
          "name": "",
          "type": "bytes32"
        }
      ],
      "name": "bytes32FingerprintToAddress",
      "outputs": [
        {
          "name": "",
          "type": "address"
        }
      ],
      "payable": false,
      "stateMutability": "view",
      "type": "function"
    },
    {
      "constant": true,
      "inputs": [
        {
          "name": "",
          "type": "address"
        }
      ],
      "name": "stringToSignRequestedOnUnixTime",
      "outputs": [
        {
          "name": "",
          "type": "uint256"
        }
      ],
      "payable": false,
      "stateMutability": "view",
      "type": "function"
    },
    {
      "constant": true,
      "inputs": [
        {
          "name": "",
          "type": "address"
        }
      ],
      "name": "verificationAddedOn",
      "outputs": [
        {
          "name": "",
          "type": "uint256"
        }
      ],
      "payable": false,
      "stateMutability": "view",
      "type": "function"
    },
    {
      "constant": true,
      "inputs": [
        {
          "name": "",
          "type": "address"
        }
      ],
      "name": "signedStringUploadedOnUnixTime",
      "outputs": [
        {
          "name": "",
          "type": "uint256"
        }
      ],
      "payable": false,
      "stateMutability": "view",
      "type": "function"
    },
    {
      "constant": true,
      "inputs": [
        {
          "name": "",
          "type": "address"
        }
      ],
      "name": "birthDate",
      "outputs": [
        {
          "name": "",
          "type": "uint256"
        }
      ],
      "payable": false,
      "stateMutability": "view",
      "type": "function"
    },
    {
      "constant": true,
      "inputs": [
        {
          "name": "",
          "type": "address"
        }
      ],
      "name": "keyCertificateValidUntil",
      "outputs": [
        {
          "name": "",
          "type": "uint256"
        }
      ],
      "payable": false,
      "stateMutability": "view",
      "type": "function"
    },
    {
      "constant": true,
      "inputs": [
        {
          "name": "",
          "type": "address"
        }
      ],
      "name": "fingerprint",
      "outputs": [
        {
          "name": "",
          "type": "bytes32"
        }
      ],
      "payable": false,
      "stateMutability": "view",
      "type": "function"
    },
    {
      "constant": true,
      "inputs": [
        {
          "name": "",
          "type": "address"
        }
      ],
      "name": "lastName",
      "outputs": [
        {
          "name": "",
          "type": "bytes32"
        }
      ],
      "payable": false,
      "stateMutability": "view",
      "type": "function"
    },
    {
      "constant": true,
      "inputs": [],
      "name": "withdrawalAddressFixed",
      "outputs": [
        {
          "name": "",
          "type": "bool"
        }
      ],
      "payable": false,
      "stateMutability": "view",
      "type": "function"
    },
    {
      "constant": true,
      "inputs": [
        {
          "name": "",
          "type": "address"
        }
      ],
      "name": "revokedOn",
      "outputs": [
        {
          "name": "",
          "type": "uint256"
        }
      ],
      "payable": false,
      "stateMutability": "view",
      "type": "function"
    },
    {
      "constant": true,
      "inputs": [],
      "name": "owner",
      "outputs": [
        {
          "name": "",
          "type": "address"
        }
      ],
      "payable": false,
      "stateMutability": "view",
      "type": "function"
    },
    {
      "constant": true,
      "inputs": [
        {
          "name": "",
          "type": "address"
        }
      ],
      "name": "verification",
      "outputs": [
        {
          "name": "fingerprint",
          "type": "string"
        },
        {
          "name": "keyCertificateValidUntil",
          "type": "uint256"
        },
        {
          "name": "firstName",
          "type": "string"
        },
        {
          "name": "lastName",
          "type": "string"
        },
        {
          "name": "birthDate",
          "type": "uint256"
        },
        {
          "name": "nationality",
          "type": "string"
        },
        {
          "name": "verificationAddedOn",
          "type": "uint256"
        },
        {
          "name": "revokedOn",
          "type": "uint256"
        }
      ],
      "payable": false,
      "stateMutability": "view",
      "type": "function"
    },
    {
      "constant": true,
      "inputs": [
        {
          "name": "",
          "type": "address"
        }
      ],
      "name": "firstName",
      "outputs": [
        {
          "name": "",
          "type": "bytes32"
        }
      ],
      "payable": false,
      "stateMutability": "view",
      "type": "function"
    },
    {
      "constant": true,
      "inputs": [
        {
          "name": "",
          "type": "address"
        }
      ],
      "name": "stringToSign",
      "outputs": [
        {
          "name": "",
          "type": "string"
        }
      ],
      "payable": false,
      "stateMutability": "view",
      "type": "function"
    },
    {
      "constant": true,
      "inputs": [
        {
          "name": "",
          "type": "address"
        }
      ],
      "name": "nationality",
      "outputs": [
        {
          "name": "",
          "type": "bytes32"
        }
      ],
      "payable": false,
      "stateMutability": "view",
      "type": "function"
    },
    {
      "constant": true,
      "inputs": [],
      "name": "withdrawalAddress",
      "outputs": [
        {
          "name": "",
          "type": "address"
        }
      ],
      "payable": false,
      "stateMutability": "view",
      "type": "function"
    },
    {
      "constant": true,
      "inputs": [
        {
          "name": "",
          "type": "address"
        }
      ],
      "name": "isManager",
      "outputs": [
        {
          "name": "",
          "type": "bool"
        }
      ],
      "payable": false,
      "stateMutability": "view",
      "type": "function"
    },
    {
      "inputs": [],
      "payable": false,
      "stateMutability": "nonpayable",
      "type": "constructor"
    },
    {
      "anonymous": false,
      "inputs": [
        {
          "indexed": true,
          "name": "forAccount",
          "type": "address"
        },
        {
          "indexed": true,
          "name": "forKeyFingerpint",
          "type": "string"
        },
        {
          "indexed": false,
          "name": "stringToSignProvided",
          "type": "string"
        }
      ],
      "name": "StringToSignRequested",
      "type": "event"
    },
    {
      "anonymous": false,
      "inputs": [
        {
          "indexed": true,
          "name": "fromAccount",
          "type": "address"
        },
        {
          "indexed": false,
          "name": "uploadedString",
          "type": "string"
        }
      ],
      "name": "SignedStringUploaded",
      "type": "event"
    },
    {
      "anonymous": false,
      "inputs": [
        {
          "indexed": true,
          "name": "forFingerprint",
          "type": "string"
        },
        {
          "indexed": true,
          "name": "verifiedAccount",
          "type": "address"
        },
        {
          "indexed": false,
          "name": "keyCertificateValidUntilUnixTime",
          "type": "uint256"
        },
        {
          "indexed": false,
          "name": "userFirstName",
          "type": "string"
        },
        {
          "indexed": false,
          "name": "userLastName",
          "type": "string"
        },
        {
          "indexed": false,
          "name": "userBirthDate",
          "type": "uint256"
        },
        {
          "indexed": false,
          "name": "userNationality",
          "type": "string"
        },
        {
          "indexed": false,
          "name": "verificationAddedByAccount",
          "type": "address"
        }
      ],
      "name": "VerificationAdded",
      "type": "event"
    },
    {
      "anonymous": false,
      "inputs": [
        {
          "indexed": true,
          "name": "revocedforAccount",
          "type": "address"
        },
        {
          "indexed": true,
          "name": "withFingerprint",
          "type": "string"
        },
        {
          "indexed": false,
          "name": "revokedOnUnixTime",
          "type": "uint256"
        },
        {
          "indexed": true,
          "name": "revokedBy",
          "type": "address"
        }
      ],
      "name": "VerificationRevoked",
      "type": "event"
    },
    {
      "anonymous": false,
      "inputs": [
        {
          "indexed": true,
          "name": "from",
          "type": "address"
        },
        {
          "indexed": true,
          "name": "to",
          "type": "address"
        }
      ],
      "name": "OwnerChanged",
      "type": "event"
    },
    {
      "anonymous": false,
      "inputs": [
        {
          "indexed": true,
          "name": "added",
          "type": "address"
        },
        {
          "indexed": true,
          "name": "addedBy",
          "type": "address"
        }
      ],
      "name": "ManagerAdded",
      "type": "event"
    },
    {
      "anonymous": false,
      "inputs": [
        {
          "indexed": true,
          "name": "removed",
          "type": "address"
        },
        {
          "indexed": true,
          "name": "removedBy",
          "type": "address"
        }
      ],
      "name": "ManagerRemoved",
      "type": "event"
    },
    {
      "anonymous": false,
      "inputs": [
        {
          "indexed": false,
          "name": "from",
          "type": "uint256"
        },
        {
          "indexed": false,
          "name": "to",
          "type": "uint256"
        },
        {
          "indexed": true,
          "name": "changedBy",
          "type": "address"
        }
      ],
      "name": "PriceChanged",
      "type": "event"
    },
    {
      "anonymous": false,
      "inputs": [
        {
          "indexed": true,
          "name": "to",
          "type": "address"
        },
        {
          "indexed": false,
          "name": "sumInWei",
          "type": "uint256"
        },
        {
          "indexed": true,
          "name": "by",
          "type": "address"
        },
        {
          "indexed": false,
          "name": "success",
          "type": "bool"
        }
      ],
      "name": "Withdrawal",
      "type": "event"
    },
    {
      "anonymous": false,
      "inputs": [
        {
          "indexed": true,
          "name": "from",
          "type": "address"
        },
        {
          "indexed": true,
          "name": "to",
          "type": "address"
        },
        {
          "indexed": true,
          "name": "changedBy",
          "type": "address"
        }
      ],
      "name": "WithdrawalAddressChanged",
      "type": "event"
    },
    {
      "anonymous": false,
      "inputs": [
        {
          "indexed": false,
          "name": "withdrawalAddressFixedAs",
          "type": "address"
        },
        {
          "indexed": false,
          "name": "fixedBy",
          "type": "address"
        }
      ],
      "name": "WithdrawalAddressFixed",
      "type": "event"
    },
    {
      "constant": true,
      "inputs": [
        {
          "name": "source",
          "type": "string"
        }
      ],
      "name": "stringToBytes32",
      "outputs": [
        {
          "name": "result",
          "type": "bytes32"
        }
      ],
      "payable": false,
      "stateMutability": "pure",
      "type": "function"
    },
    {
      "constant": true,
      "inputs": [
        {
          "name": "_bytes32",
          "type": "bytes32"
        }
      ],
      "name": "bytes32ToString",
      "outputs": [
        {
          "name": "",
          "type": "string"
        }
      ],
      "payable": false,
      "stateMutability": "pure",
      "type": "function"
    },
    {
      "constant": true,
      "inputs": [
        {
          "name": "_address",
          "type": "address"
        }
      ],
      "name": "addressToString",
      "outputs": [
        {
          "name": "",
          "type": "string"
        }
      ],
      "payable": false,
      "stateMutability": "pure",
      "type": "function"
    },
    {
      "constant": true,
      "inputs": [],
      "name": "messageSenderAddressToString",
      "outputs": [
        {
          "name": "",
          "type": "string"
        }
      ],
      "payable": false,
      "stateMutability": "view",
      "type": "function"
    },
    {
      "constant": true,
      "inputs": [
        {
          "name": "str1",
          "type": "string"
        },
        {
          "name": "str2",
          "type": "string"
        }
      ],
      "name": "stringsConcatenation",
      "outputs": [
        {
          "name": "",
          "type": "string"
        }
      ],
      "payable": false,
      "stateMutability": "pure",
      "type": "function"
    },
    {
      "constant": true,
      "inputs": [
        {
          "name": "str1",
          "type": "string"
        },
        {
          "name": "str2",
          "type": "string"
        },
        {
          "name": "str3",
          "type": "string"
        }
      ],
      "name": "stringsJoin",
      "outputs": [
        {
          "name": "",
          "type": "string"
        }
      ],
      "payable": false,
      "stateMutability": "pure",
      "type": "function"
    },
    {
      "constant": false,
      "inputs": [
        {
          "name": "_fingerprint",
          "type": "string"
        }
      ],
      "name": "requestStringToSignWithKey",
      "outputs": [
        {
          "name": "",
          "type": "string"
        }
      ],
      "payable": false,
      "stateMutability": "nonpayable",
      "type": "function"
    },
    {
      "constant": true,
      "inputs": [
        {
          "name": "_fingerprint",
          "type": "string"
        }
      ],
      "name": "getAddressConnectedToFingerprint",
      "outputs": [
        {
          "name": "",
          "type": "address"
        }
      ],
      "payable": false,
      "stateMutability": "view",
      "type": "function"
    },
    {
      "constant": false,
      "inputs": [
        {
          "name": "_signedString",
          "type": "string"
        }
      ],
      "name": "uploadSignedString",
      "outputs": [
        {
          "name": "",
          "type": "bool"
        }
      ],
      "payable": true,
      "stateMutability": "payable",
      "type": "function"
    },
    {
      "constant": false,
      "inputs": [
        {
          "name": "acc",
          "type": "address"
        },
        {
          "name": "_keyCertificateValidUntil",
          "type": "uint256"
        },
        {
          "name": "_firstName",
          "type": "string"
        },
        {
          "name": "_lastName",
          "type": "string"
        },
        {
          "name": "_birthDate",
          "type": "uint256"
        },
        {
          "name": "_nationality",
          "type": "string"
        }
      ],
      "name": "addVerificationData",
      "outputs": [
        {
          "name": "",
          "type": "bool"
        }
      ],
      "payable": false,
      "stateMutability": "nonpayable",
      "type": "function"
    },
    {
      "constant": false,
      "inputs": [
        {
          "name": "acc",
          "type": "address"
        },
        {
          "name": "_fingerprint",
          "type": "string"
        }
      ],
      "name": "revokeVerification",
      "outputs": [
        {
          "name": "",
          "type": "bool"
        }
      ],
      "payable": false,
      "stateMutability": "nonpayable",
      "type": "function"
    },
    {
      "constant": false,
      "inputs": [
        {
          "name": "_newOwner",
          "type": "address"
        }
      ],
      "name": "changeOwnerStart",
      "outputs": [
        {
          "name": "",
          "type": "bool"
        }
      ],
      "payable": false,
      "stateMutability": "nonpayable",
      "type": "function"
    },
    {
      "constant": false,
      "inputs": [],
      "name": "changeOwnerAccept",
      "outputs": [
        {
          "name": "",
          "type": "bool"
        }
      ],
      "payable": false,
      "stateMutability": "nonpayable",
      "type": "function"
    },
    {
      "constant": false,
      "inputs": [
        {
          "name": "acc",
          "type": "address"
        }
      ],
      "name": "addManager",
      "outputs": [
        {
          "name": "",
          "type": "bool"
        }
      ],
      "payable": false,
      "stateMutability": "nonpayable",
      "type": "function"
    },
    {
      "constant": false,
      "inputs": [
        {
          "name": "manager",
          "type": "address"
        }
      ],
      "name": "removeManager",
      "outputs": [
        {
          "name": "",
          "type": "bool"
        }
      ],
      "payable": false,
      "stateMutability": "nonpayable",
      "type": "function"
    },
    {
      "constant": false,
      "inputs": [
        {
          "name": "priceInWei",
          "type": "uint256"
        }
      ],
      "name": "setPriceForVerification",
      "outputs": [
        {
          "name": "",
          "type": "bool"
        }
      ],
      "payable": false,
      "stateMutability": "nonpayable",
      "type": "function"
    },
    {
      "constant": false,
      "inputs": [],
      "name": "withdrawAllToWithdrawalAddress",
      "outputs": [
        {
          "name": "",
          "type": "bool"
        }
      ],
      "payable": false,
      "stateMutability": "nonpayable",
      "type": "function"
    },
    {
      "constant": false,
      "inputs": [
        {
          "name": "_withdrawalAddress",
          "type": "address"
        }
      ],
      "name": "setWithdrawalAddress",
      "outputs": [
        {
          "name": "",
          "type": "bool"
        }
      ],
      "payable": false,
      "stateMutability": "nonpayable",
      "type": "function"
    },
    {
      "constant": false,
      "inputs": [
        {
          "name": "_withdrawalAddress",
          "type": "address"
        }
      ],
      "name": "fixWithdrawalAddress",
      "outputs": [
        {
          "name": "",
          "type": "bool"
        }
      ],
      "payable": false,
      "stateMutability": "nonpayable",
      "type": "function"
    }
  ],
  "bytecode": "0x60606040526011805460a060020a60ff0219169055341561001f57600080fd5b600e8054600160a060020a033316600160a060020a031991821681179092556000828152600f60205260409020805460ff19166001179055601180549091169091179055612525806100726000396000f3006060604052600436106101d75763ffffffff7c010000000000000000000000000000000000000000000000000000000060003504166302c2934981146101dc57806309905bdb1461020f5780630a29f5081461023457806321b8092e1461027a57806322652e05146102995780632724c5161461032f5780632d06177a1461036157806334a00b271461038057806339b51e7c1461039f57806345d6f02e146103be57806347889c42146103dd5780634978ac3f146103fc578063546e19591461048f5780635569ca2d146104ae5780635b3d0bc1146105a05780635e57966d146105bf57806361b027b0146105de57806365455fdc146105fd57806376e57d4b1461061c578063836afead1461062f5780638da5cb5b1461064e5780639201de551461066157806392b4e132146106775780639538833c146108af5780639a159bf6146108c25780639b5522a6146108e1578063ac18de43146108f4578063b17a98b614610913578063be89d38514610926578063cc29f81114610977578063cfb5192814610a4c578063d61a86bf14610a9d578063ec94526914610abc578063ee3e469d14610adb578063f2bcd02214610b2c578063f3ae241514610b3f578063f883e47814610b5e578063fb20dc8014610bbd575b600080fd5b34156101e757600080fd5b6101fb600160a060020a0360043516610bd3565b604051901515815260200160405180910390f35b341561021a57600080fd5b610222610ca0565b60405190815260200160405180910390f35b6101fb60046024813581810190830135806020601f82018190048102016040519081016040528181529291906020840183838082843750949650610ca695505050505050565b341561028557600080fd5b6101fb600160a060020a0360043516610dfe565b34156102a457600080fd5b6102b8600160a060020a0360043516610ea5565b60405160208082528190810183818151815260200191508051906020019080838360005b838110156102f45780820151838201526020016102dc565b50505050905090810190601f1680156103215780820380516001836020036101000a031916815260200191505b509250505060405180910390f35b341561033a57600080fd5b610345600435610f55565b604051600160a060020a03909116815260200160405180910390f35b341561036c57600080fd5b6101fb600160a060020a0360043516610f70565b341561038b57600080fd5b610222600160a060020a0360043516610fec565b34156103aa57600080fd5b610222600160a060020a0360043516610ffe565b34156103c957600080fd5b610222600160a060020a0360043516611010565b34156103e857600080fd5b610222600160a060020a0360043516611022565b341561040757600080fd5b6102b860046024813581810190830135806020601f8201819004810201604051908101604052818152929190602084018383808284378201915050505050509190803590602001908201803590602001908080601f01602080910402602001604051908101604052818152929190602084018383808284375094965061103495505050505050565b341561049a57600080fd5b6101fb600160a060020a036004351661105d565b34156104b957600080fd5b6101fb60048035600160a060020a03169060248035919060649060443590810190830135806020601f8201819004810201604051908101604052818152929190602084018383808284378201915050505050509190803590602001908201803590602001908080601f01602080910402602001604051908101604052818152929190602084018383808284378201915050505050509190803590602001909190803590602001908201803590602001908080601f0160208091040260200160405190810160405281815292919060208401838380828437509496506110ad95505050505050565b34156105ab57600080fd5b610222600160a060020a03600435166114d6565b34156105ca57600080fd5b6102b8600160a060020a03600435166114e8565b34156105e957600080fd5b610222600160a060020a036004351661153b565b341561060857600080fd5b610222600160a060020a036004351661154d565b341561062757600080fd5b6101fb61155f565b341561063a57600080fd5b610222600160a060020a036004351661156f565b341561065957600080fd5b610345611581565b341561066c57600080fd5b6102b8600435611590565b341561068257600080fd5b610696600160a060020a0360043516611618565b604051602081018890526080810185905260c0810183905260e081018290526101008082528954600260001960018316158402019091160490820181905281906040820190606083019060a08401906101208501908e90801561073a5780601f1061070f5761010080835404028352916020019161073a565b820191906000526020600020905b81548152906001019060200180831161071d57829003601f168201915b505085810384528b54600260001961010060018416150201909116048082526020909101908c9080156107ae5780601f10610783576101008083540402835291602001916107ae565b820191906000526020600020905b81548152906001019060200180831161079157829003601f168201915b505085810383528a54600260001961010060018416150201909116048082526020909101908b9080156108225780601f106107f757610100808354040283529160200191610822565b820191906000526020600020905b81548152906001019060200180831161080557829003601f168201915b50508581038252885460026000196101006001841615020190911604808252602090910190899080156108965780601f1061086b57610100808354040283529160200191610896565b820191906000526020600020905b81548152906001019060200180831161087957829003601f168201915b50509c5050505050505050505050505060405180910390f35b34156108ba57600080fd5b6101fb61164f565b34156108cd57600080fd5b610222600160a060020a03600435166116e2565b34156108ec57600080fd5b6102b86116f4565b34156108ff57600080fd5b6101fb600160a060020a036004351661170a565b341561091e57600080fd5b6101fb611783565b341561093157600080fd5b6102b860046024813581810190830135806020601f8201819004810201604051908101604052818152929190602084018383808284375094965061186a95505050505050565b341561098257600080fd5b6102b860046024813581810190830135806020601f8201819004810201604051908101604052818152929190602084018383808284378201915050505050509190803590602001908201803590602001908080601f01602080910402602001604051908101604052818152929190602084018383808284378201915050505050509190803590602001908201803590602001908080601f016020809104026020016040519081016040528181529291906020840183838082843750949650611bfa95505050505050565b3415610a5757600080fd5b61022260046024813581810190830135806020601f82018190048102016040519081016040528181529291906020840183838082843750949650611d1595505050505050565b3415610aa857600080fd5b6102b8600160a060020a0360043516611d22565b3415610ac757600080fd5b610222600160a060020a0360043516611d9f565b3415610ae657600080fd5b61034560046024813581810190830135806020601f82018190048102016040519081016040528181529291906020840183838082843750949650611db195505050505050565b3415610b3757600080fd5b610345611ddc565b3415610b4a57600080fd5b6101fb600160a060020a0360043516611deb565b3415610b6957600080fd5b6101fb60048035600160a060020a03169060446024803590810190830135806020601f82018190048102016040519081016040528181529291906020840183838082843750949650611e0095505050505050565b3415610bc857600080fd5b6101fb600435612010565b600e5460009033600160a060020a03908116911614610bf157600080fd5b601154600160a060020a03838116911614610c0b57600080fd5b60115460a060020a900460ff1615610c2257600080fd5b6011805474ff0000000000000000000000000000000000000000191660a060020a17908190557fff51cf04e7fbddffc521b8673e9282b10a91c659c12eea9ef99182bd9a95ff7190600160a060020a031633604051600160a060020a039283168152911660208201526040908101905180910390a15060015b919050565b60105481565b6000601054341015610cb757600080fd5b600160a060020a0333166000908152600a60205260409020541515610cdb57600080fd5b600160a060020a0333166000908152600b602052604090205415610cfe57600080fd5b600160a060020a0333166000908152600c60205260409020828051610d2792916020019061243c565b50600160a060020a0333166000818152600b60209081526040808320429055600c909152908190207fc8a9806458025c6b39a3365b2711f67211bc9c98672493f2f2119b0b6ace90f7915160208082528254600260001961010060018416150201909116049082018190528190604082019084908015610de85780601f10610dbd57610100808354040283529160200191610de8565b820191906000526020600020905b815481529060010190602001808311610dcb57829003601f168201915b50509250505060405180910390a2506001919050565b600e5460009033600160a060020a03908116911614610e1c57600080fd5b60115460a060020a900460ff1615610e3357600080fd5b601154600160a060020a033381169184821691167f15fc95cfd5d20b9661cf80c2719d8e3180bee6d89379a03b7b14ca6ac6adea9860405160405180910390a45060118054600160a060020a03831673ffffffffffffffffffffffffffffffffffffffff199091161790556001919050565b600c6020528060005260406000206000915090508054600181600116156101000203166002900480601f016020809104026020016040519081016040528092919081815260200182805460018160011615610100020316600290048015610f4d5780601f10610f2257610100808354040283529160200191610f4d565b820191906000526020600020905b815481529060010190602001808311610f3057829003601f168201915b505050505081565b600160205260009081526040902054600160a060020a031681565b600e5460009033600160a060020a03908116911614610f8e57600080fd5b600160a060020a038083166000818152600f602052604090819020805460ff1916600117905533909216917f05a4006f300442cf8b7fdb885f5ee958812020bffb5c5a8e655fde64e5f987ed905160405180910390a3506001919050565b600a6020526000908152604090205481565b60076020526000908152604090205481565b600b6020526000908152604090205481565b60056020526000908152604090205481565b61103c6124b6565b6110566110488461208f565b6110518461208f565b6120b7565b9392505050565b600e5460009033600160a060020a0390811691161461107b57600080fd5b5060128054600160a060020a03831673ffffffffffffffffffffffffffffffffffffffff199091161790556001919050565b600160a060020a0333166000908152600f602052604081205460ff1615156110d457600080fd5b6020855111156110e357600080fd5b6020845111156110f257600080fd5b815160021461110057600080fd5b600160a060020a0387166000908152600b6020526040902054151561112457600080fd5b600160a060020a0387166000908152600760205260409020541561114757600080fd5b600160a060020a03871660009081526002602081815260408084208a9055600d909152909120600181018890550185805161118692916020019061243c565b5061119085611d15565b600160a060020a038816600090815260036020818152604080842094909455600d9052919020018480516111c892916020019061243c565b506111d284611d15565b600160a060020a0388166000908152600460208181526040808420949094556005808252848420889055600d909152929091209081018590550182805161121d92916020019061243c565b5061122782611d15565b600160a060020a038816600081815260066020818152604080842095909555600781528483204290819055600d909152918490209081019190915590915180828054600181600116156101000203166002900480156112bd5780601f1061129b5761010080835404028352918201916112bd565b820191906000526020600020905b8154815290600101906020018083116112a9575b5050915050604051908190039020600160a060020a038916600090815260026020818152604080842054600d80845282862060058086529684902054919094527f2d409d50cee634403fd5b6ab17fdecb0f3cff81c7b05d1b7dc24c04e1515387495919484019360038101939192019033905186815260608101849052600160a060020a03821660a082015260c060208201818152875460026000196101006001841615020190911604918301829052906040830190608084019060e08501908a9080156113cc5780601f106113a1576101008083540402835291602001916113cc565b820191906000526020600020905b8154815290600101906020018083116113af57829003601f168201915b50508481038352885460026000196101006001841615020190911604808252602090910190899080156114405780601f1061141557610100808354040283529160200191611440565b820191906000526020600020905b81548152906001019060200180831161142357829003601f168201915b50508481038252865460026000196101006001841615020190911604808252602090910190879080156114b45780601f10611489576101008083540402835291602001916114b4565b820191906000526020600020905b81548152906001019060200180831161149757829003601f168201915b5050995050505050505050505060405180910390a35060019695505050505050565b60026020526000908152604090205481565b6114f06124b6565b61153560408051908101604052600281527f3078000000000000000000000000000000000000000000000000000000000000602082015261153084612123565b611034565b92915050565b60006020819052908152604090205481565b60046020526000908152604090205481565b60115460a060020a900460ff1681565b60086020526000908152604090205481565b600e54600160a060020a031681565b6115986124b6565b6115a06124b6565b600060206040518059106115b15750595b818152601f19601f8301168101602001604052905091505b6020811015611611578381602081106115de57fe5b1a60f860020a028282815181106115f157fe5b906020010190600160f860020a031916908160001a9053506001016115c9565b5092915050565b600d602052600090815260409020600181015460048201546006830154600784015460028501926003860192909160058701919088565b60125460009033600160a060020a0390811691161461166d57600080fd5b601254600e54600160a060020a0391821691167fb532073b38c83145e3e5135377a08bf9aab55bc0fd7c1179cd4fb995d2a5159c60405160405180910390a350601254600e805473ffffffffffffffffffffffffffffffffffffffff1916600160a060020a0390921691909117905560015b90565b60036020526000908152604090205481565b6116fc6124b6565b611705336114e8565b905090565b600e5460009033600160a060020a0390811691161461172857600080fd5b600160a060020a038083166000818152600f602052604090819020805460ff1916905533909216917f3e902a6ee93dd5b2d48bd1009c7701a481be512b1ef73dbed2f95ea44c59ea88905160405180910390a3506001919050565b601154600090600160a060020a03308116803192909116903180156108fc0290604051600060405180830381858888f19350505050151561181457601154600160a060020a0333811691167f78746de4b42c369479b14075849ee3378535cb810d96e74712e26a7924f7b021836000604051918252151560208201526040908101905180910390a360009150611866565b601154600160a060020a0333811691167f78746de4b42c369479b14075849ee3378535cb810d96e74712e26a7924f7b021836001604051918252151560208201526040908101905180910390a3600191505b5090565b6118726124b6565b61187a6124b6565b6118826124b6565b61188a6124b6565b600160a060020a0333166000908152600a6020526040812054156118ad57600080fd5b600160a060020a0333166000908152600a6020526040902042905585516028146118d657600080fd5b606060405190810160405280602181526020017f492068657265627920636f6e6669726d2074686174207468652061646472657381526020017f7300000000000000000000000000000000000000000000000000000000000000815250935061193d6116f4565b925060408051908101604052601681527f6973206d7920457468657265756d20616464726573730000000000000000000060208201529150611980848484611bfa565b600160a060020a03331660009081526009602052604090209080516119a992916020019061243c565b506119b386611d15565b600160a060020a03331660008181526020818152604080832085905584835260018252808320805473ffffffffffffffffffffffffffffffffffffffff191685179055928252600d905220909150868051611a1292916020019061243c565b50856040518082805190602001908083835b60208310611a435780518252601f199092019160209182019101611a24565b6001836020036101000a0380198251168184511617909252505050919091019250604091505051908190039020600160a060020a033316600081815260096020526040908190207f3937ba338b899c5febd54744a75928d84dddd9017746f3fe421412cc51875528915160208082528254600260001961010060018416150201909116049082018190528190604082019084908015611b235780601f10611af857610100808354040283529160200191611b23565b820191906000526020600020905b815481529060010190602001808311611b0657829003601f168201915b50509250505060405180910390a36009600033600160a060020a0316600160a060020a031681526020019081526020016000208054600181600116156101000203166002900480601f016020809104026020016040519081016040528092919081815260200182805460018160011615610100020316600290048015611bea5780601f10611bbf57610100808354040283529160200191611bea565b820191906000526020600020905b815481529060010190602001808311611bcd57829003601f168201915b5050505050945050505050919050565b611c026124b6565b611c0a6124c8565b611c126124b6565b611c1a6124b6565b611c5660408051908101604052600181527f2000000000000000000000000000000000000000000000000000000000000000602082015261208f565b92506003604051805910611c675750595b908082528060200260200182016040528015611c9d57816020015b611c8a6124c8565b815260200190600190039081611c825790505b509150611ca98761208f565b82600081518110611cb657fe5b60209081029091010152611cc98661208f565b82600181518110611cd657fe5b60209081029091010152611ce98561208f565b82600281518110611cf657fe5b60209081029091010152611d0a8383612247565b979650505050505050565b6000602082015192915050565b60096020528060005260406000206000915090508054600181600116156101000203166002900480601f016020809104026020016040519081016040528092919081815260200182805460018160011615610100020316600290048015610f4d5780601f10610f2257610100808354040283529160200191610f4d565b60066020526000908152604090205481565b600080611dbd83611d15565b600090815260016020526040902054600160a060020a03169392505050565b601154600160a060020a031681565b600f6020526000908152604090205460ff1681565b600082600160a060020a031633600160a060020a03161480611e3a5750600160a060020a0333166000908152600f602052604090205460ff165b1515611e4557600080fd5b8151601414611e5357600080fd5b816040518082805190602001908083835b60208310611e835780518252601f199092019160209182019101611e64565b6001836020036101000a0380198251168184511617909252505050919091019250604091505051908190039020600160a060020a0384166000908152600d60205260409081902090518082805460018160011615610100020316600290048015611f245780601f10611f02576101008083540402835291820191611f24565b820191906000526020600020905b815481529060010190602001808311611f10575b505091505060405190819003902014611f3c57600080fd5b600160a060020a0380841660009081526008602090815260408083204290819055600d909252918290206007015533909116908390518082805190602001908083835b60208310611f9e5780518252601f199092019160209182019101611f7f565b6001836020036101000a0380198251168184511617909252505050919091019250604091505051809103902084600160a060020a03167fc6f2b8565550ea0e6941e2f0f6b7e65e5eb1fdccb33e0c7815af0f3ce5669cff4260405190815260200160405180910390a450600192915050565b600160a060020a0333166000908152600f6020526040812054819060ff16151561203957600080fd5b506010805490839055600160a060020a0333167f665d155f71ad96c4a04629d54ef9fb27ef57911253588f2ee93474cd02fa3f53828560405191825260208201526040908101905180910390a250600192915050565b6120976124c8565b602082016040805190810160405280845181526020019190915292915050565b6120bf6124b6565b6120c76124b6565b600083518551016040518059106120db5750595b818152601f19601f830116810160200160405290509150602082019050612108818660200151875161237b565b61211b855182018560200151865161237b565b509392505050565b61212b6124b6565b6121336124b6565b60008060008060286040518059106121485750595b818152601f19601f830116810160200160405290509450600093505b601484101561223c578360130360080260020a87600160a060020a031681151561218a57fe5b0460f860020a02925060108360f860020a900460ff168115156121a957fe5b0460f860020a0291508160f860020a90046010028360f860020a90040360f860020a0290506121d7826123c0565b8585600202815181106121e657fe5b906020010190600160f860020a031916908160001a905350612207816123c0565b85856002026001018151811061221957fe5b906020010190600160f860020a031916908160001a905350600190930192612164565b509295945050505050565b61224f6124b6565b60008061225a6124b6565b60008551151561227a576020604051908101604052600081529450612371565b60018651038751029350600092505b85518310156122b85785838151811061229e57fe5b906020019060200201515190930192600190920191612289565b836040518059106122c65750595b818152601f19601f8301168101602001604052905060009350915050602081015b855183101561236d5761232a8187858151811061230057fe5b906020019060200201516020015188868151811061231a57fe5b906020019060200201515161237b565b85838151811061233657fe5b90602001906020020151510160018651038310156123625761235e818860200151895161237b565b8651015b6001909201916122e7565b8194505b5050505092915050565b60005b602082106123a1578251845260208401935060208301925060208203915061237e565b6001826020036101000a03905080198351168185511617909352505050565b60007f0a000000000000000000000000000000000000000000000000000000000000007fff0000000000000000000000000000000000000000000000000000000000000083161015612424578160f860020a900460300160f860020a029050610c9b565b8160f860020a900460570160f860020a029050610c9b565b828054600181600116156101000203166002900490600052602060002090601f016020900481019282601f1061247d57805160ff19168380011785556124aa565b828001600101855582156124aa579182015b828111156124aa57825182559160200191906001019061248f565b506118669291506124df565b60206040519081016040526000815290565b604080519081016040526000808252602082015290565b6116df91905b8082111561186657600081556001016124e55600a165627a7a72305820ed16a9f9f8c90a535e638529fc01894b0d0d3e819345dbb6a3d8f3eafcc6dfd00029",
  "source": "pragma solidity ^0.4.18;\n\n\n/*\ndeveloped by cryptonomica.net, 2017\nlast version: 2017-11-21\ngithub: https://github.com/Cryptonomica/\n*/\n\ncontract CryptonomicaVerification {\n\n    /* ---------------------- Verification Data */\n\n    // Ethereum address is connected to OpenPGP public key data from Cryptonomica.net\n    // Ethereum address can be connected to one OpenPGP key only, and one time only\n    // If OpenPGP key expires, user have to use another Ethereum address for new OpenPGP public key\n    // But user can verify multiple Ethereum accounts with the same OpenPGP key\n\n    // ---- mappings to store verification data, to make it accessible for other smart contracts\n    // we store sting data as bytes32 (http://solidity.readthedocs.io/en/develop/types.html#fixed-size-byte-arrays)\n    // !!! -> up to 32 ASCII letters,\n    // see: https://ethereum.stackexchange.com/questions/6729/how-many-letters-can-bytes32-keep\n\n    // OpenPGP Message Format https://tools.ietf.org/html/rfc4880#section-12.2 : \"A V4 fingerprint is the 160-bit SHA-1 hash ...\"\n    // thus fingerprint is fingerprint is 20 bytes, in hexadecimal 40 symbols string representation.\n    // fingerprints are stored as upper case strings like:\n    // 57A5FEE5A34D563B4B85ADF3CE369FD9E77173E5\n    // see: https://crypto.stackexchange.com/questions/32087/how-to-generate-fingerprint-for-pgp-public-key\n    mapping(address => bytes32) public fingerprint; // ..............................................................0\n    mapping(bytes32 => address) public bytes32FingerprintToAddress;\n\n    mapping(address => uint) public keyCertificateValidUntil; // unix time ..........................................1\n    mapping(address => bytes32) public firstName; // ................................................................2\n    mapping(address => bytes32) public lastName; // .................................................................3\n    mapping(address => uint) public birthDate; // unix time .........................................................4\n    // Nationality - from user passport or id document:\n    // 2-letter country codes defined in ISO 3166\n    // like returned by Locale.getISOCountries() in Java (upper case)\n    // see: https://en.wikipedia.org/wiki/ISO_3166-1_alpha-2\n    mapping(address => bytes32) public nationality; //      .........................................................5\n    mapping(address => uint256) public verificationAddedOn; // unix time ............................................6\n    mapping(address => uint256) public revokedOn; // unix time, returns uint256: 0 if verification is not revoked ...7\n\n    mapping(address => string) public stringToSign; // string\n    // (string to sign can be requested only one time for address\n    // if not yet requested value is 0 )\n    // unix time online converter: https://www.epochconverter.com\n    // for coders: http://www.convert-unix-time.com\n    mapping(address => uint256) public stringToSignRequestedOnUnixTime; //\n    mapping(address => uint256) public signedStringUploadedOnUnixTime; //\n    // this will be longer than 32 char, and have to be properly formatted (with \"\\n\")\n    mapping(address => string) public signedString; //\n\n    /* the same data as above stored as a struct:\n    struct will be returned as 'List' in web3j (only one function call needed) */\n    mapping(address => Verification) public verification;\n\n\n    struct Verification {\n        // all string have to be <= 32 chars\n        string fingerprint; // ..................................................0\n        uint keyCertificateValidUntil; // .......................................1\n        string firstName; // ....................................................2\n        string lastName;// ......................................................3\n        uint birthDate; //  .....................................................4\n        string nationality; //  .................................................5\n        uint verificationAddedOn;// .............................................6\n        uint revokedOn; // ......................................................7\n    }\n\n    /*  ---------------------------------- Administrative Data */\n\n    address public owner; // smart contract owner (super admin)\n    mapping(address => bool) public isManager; // list of managers\n\n    uint public priceForVerificationInWei; // see converter on https://etherconverter.online/\n\n    //    function priceForVerificationInEth() constant public returns (uint){\n    //        return priceForVerificationInWei / (10 ** 18);\n    //    }\n\n    address public withdrawalAddress; // address to send Ether from this contract\n    bool public withdrawalAddressFixed = false; // this can be smart contract with manages ETH from this SC\n\n    /* ------------------------------------------- Constructor */\n    // Constructor must be public or internal\n    function CryptonomicaVerification() public {\n        owner = msg.sender;\n        isManager[msg.sender] = true;\n        withdrawalAddress = msg.sender;\n    }\n\n    /* -------------------- Utility functions : ---------------------- */\n\n    function stringToBytes32(string memory source) public pure returns (bytes32 result) {\n\n        // require(bytes(source).length <= 32); // causes error\n        // but string have to be max 32 chars\n\n        // https://ethereum.stackexchange.com/questions/9603/understanding-mload-assembly-function\n        // http://solidity.readthedocs.io/en/latest/assembly.html\n        assembly {\n            result := mload(add(source, 32))\n        }\n    }\n\n    // see also:\n    // https://ethereum.stackexchange.com/questions/2519/how-to-convert-a-bytes32-to-string\n    // https://ethereum.stackexchange.com/questions/1081/how-to-concatenate-a-bytes32-array-to-a-string\n    function bytes32ToString(bytes32 _bytes32) public pure returns (string){\n        // string memory str = string(_bytes32);\n        // TypeError: Explicit type conversion not allowed from \"bytes32\" to \"string storage pointer\"\n        // thus we should convert bytes32 to bytes (to dynamically-sized byte array)\n        bytes memory bytesArray = new bytes(32);\n        for (uint256 i; i < 32; i++) {\n            bytesArray[i] = _bytes32[i];\n        }\n        return string(bytesArray);\n    }\n\n    /* ethereum address to string */\n    // https://ethereum.stackexchange.com/questions/8346/convert-address-to-string\n    // https://ethereum.stackexchange.com/a/8447/1964\n    function addressToAsciiString(address _address) private pure returns (string) {\n        bytes memory s = new bytes(40);\n        for (uint i = 0; i < 20; i++) {\n            byte b = byte(uint8(uint(_address) / (2 ** (8 * (19 - i)))));\n            byte hi = byte(uint8(b) / 16);\n            byte lo = byte(uint8(b) - 16 * uint8(hi));\n            s[2 * i] = char(hi);\n            s[2 * i + 1] = char(lo);\n        }\n        // without \"0x\"\n        return string(s);\n    } //\n    function char(byte b) private pure returns (byte c) {\n        if (b < 10) return byte(uint8(b) + 0x30);\n        else return byte(uint8(b) + 0x57);\n    }\n\n    function addressToString(address _address) public pure returns (string) {\n        return stringsConcatenation(\"0x\", addressToAsciiString(_address));\n    }\n\n    function messageSenderAddressToString() public constant returns (string){\n        return addressToString(msg.sender);\n    }\n\n    /* --------------------- strings functions begin        */\n    /* --- https://github.com/Arachnid/solidity-stringutils */\n\n    struct slice {uint _len; uint _ptr;}\n\n    function memcpy(uint dest, uint src, uint len) private pure {\n        for (; len >= 32; len -= 32) {\n            assembly {\n                mstore(dest, mload(src))\n            }\n            dest += 32;\n            src += 32;\n        }\n        uint mask = 256 ** (32 - len) - 1;\n        assembly {\n            let srcpart := and(mload(src), not(mask))\n            let destpart := and(mload(dest), mask)\n            mstore(dest, or(destpart, srcpart))\n        }\n    }\n\n    /*\n     * @dev Returns a slice containing the entire string.\n     * @param self The string to make a slice from.\n     * @return A newly allocated slice containing the entire string.\n     */\n    function toSlice(string self) internal pure returns (slice) {\n        uint ptr;\n        assembly {\n            ptr := add(self, 0x20)\n        }\n        return slice(bytes(self).length, ptr);\n    }\n\n    /*\n     * @dev Returns a newly allocated string containing the concatenation of `self` and `other`.\n     * @param self The first slice to concatenate.\n     * @param other The second slice to concatenate.\n     * @return The concatenation of the two strings.\n     */\n    function concat(slice self, slice other) internal pure returns (string) {\n        var ret = new string(self._len + other._len);\n        uint retptr;\n        assembly {retptr := add(ret, 32)}\n        memcpy(retptr, self._ptr, self._len);\n        memcpy(retptr + self._len, other._ptr, other._len);\n        return ret;\n    }\n\n    /*\n     * @dev Joins an array of slices, using `self` as a delimiter, returning a newly allocated string.\n     * @param self The delimiter to use.\n     * @param parts A list of slices to join.\n     * @return A newly allocated string containing all the slices in `parts`, joined with `self`.\n     */\n    function join(slice self, slice[] parts) internal pure returns (string) {\n        if (parts.length == 0)\n            return \"\";\n        uint length = self._len * (parts.length - 1);\n        for (uint i = 0; i < parts.length; i++)\n            length += parts[i]._len;\n        var ret = new string(length);\n        uint retptr;\n        assembly {retptr := add(ret, 32)}\n        for (i = 0; i < parts.length; i++) {\n            memcpy(retptr, parts[i]._ptr, parts[i]._len);\n            retptr += parts[i]._len;\n            if (i < parts.length - 1) {\n                memcpy(retptr, self._ptr, self._len);\n                retptr += self._len;\n            }\n        }\n        return ret;\n    }\n    /* --------------------- strings -- end   */\n\n    function stringsConcatenation(string str1, string str2) public pure returns (string) {\n        return concat(toSlice(str1), toSlice(str2));\n    } //\n\n    function stringsJoin(string str1, string str2, string str3) public pure returns (string) {\n        slice memory delimiter = toSlice(\" \");\n        // see: http://solidity.readthedocs.io/en/v0.4.15/types.html#arrays\n        // http://solidity.readthedocs.io/en/v0.4.15/types.html#allocating-memory-arrays\n        slice[] memory slicesArray = new slice[](3);\n        slicesArray[0] = toSlice(str1);\n        slicesArray[1] = toSlice(str2);\n        slicesArray[2] = toSlice(str3);\n        string memory result = join(delimiter, slicesArray);\n        return result;\n    } //\n\n    /* -------------------- Verification functions : ---------------------- */\n\n    // from user acc:\n    // get unique string for verification request\n    function requestStringToSignWithKey(string _fingerprint) public returns (string) {\n\n        // (!) string can be requested only one time for account\n        // if never requested, stringToSignRequestedOnUnixTime[msg.sender] value should be 0 (zero)\n        require(stringToSignRequestedOnUnixTime[msg.sender] == 0);\n        // store information about this request:\n        stringToSignRequestedOnUnixTime[msg.sender] = block.timestamp;\n\n        // fingerprint should be uppercase 40 symbols\n        require(bytes(_fingerprint).length == 40);\n\n        string memory str1 = \"I hereby confirm that the address\";\n        string memory str2 = messageSenderAddressToString();\n        string memory str3 = \"is my Ethereum address\";\n\n        stringToSign[msg.sender] = stringsJoin(str1, str2, str3);\n\n        // bytes32\n        bytes32 fingerprintBytes32 = stringToBytes32(_fingerprint);\n        fingerprint[msg.sender] = fingerprintBytes32;\n        bytes32FingerprintToAddress[fingerprintBytes32] = msg.sender;\n        // string\n        verification[msg.sender].fingerprint = _fingerprint;\n\n        // event:\n        StringToSignRequested(msg.sender, _fingerprint, stringToSign[msg.sender]);\n\n        return stringToSign[msg.sender];\n    }\n\n    event StringToSignRequested(address indexed forAccount, string indexed forKeyFingerpint, string stringToSignProvided);\n\n    function getAddressConnectedToFingerprint(string memory _fingerprint) public view returns (address){\n        bytes32 fingerprintBytes32 = stringToBytes32(_fingerprint);\n        return bytes32FingerprintToAddress[fingerprintBytes32];\n    }\n\n    // ---\n    // from user acc\n    function uploadSignedString(string _signedString) public payable returns (bool) {\n\n        // check length of the uploaded string,\n        // it expected to be a 64 chars string signed with OpenPGP standard signature\n        // bytes: Dynamically-sized byte array,\n        // see: http://solidity.readthedocs.io/en/develop/types.html#dynamically-sized-byte-array\n        // if (bytes(_signedString).length > 1000) {//\n        //    revert();\n        //    // (payable)\n        // }\n        // --- not needed: if string is to big -> out of gas\n\n        // check payment :\n        if (msg.value < priceForVerificationInWei) {\n            revert();\n            // (payable)\n        }\n\n        // if never requested, stringToSignRequestedOnUnixTime[msg.sender] value should be 0 (zero)\n        if (stringToSignRequestedOnUnixTime[msg.sender] == 0) {\n            revert();\n            // (payable)\n        }\n\n        // if signed string already uploaded, should revert\n        if (signedStringUploadedOnUnixTime[msg.sender] != 0) {\n            revert();\n            // (payable)\n        }\n\n        // string\n        signedString[msg.sender] = _signedString;\n        // uint256 - Unix Time\n        signedStringUploadedOnUnixTime[msg.sender] = block.timestamp;\n\n        SignedStringUploaded(msg.sender, signedString[msg.sender]);\n\n        return true;\n    }\n\n    event SignedStringUploaded(address indexed fromAccount, string uploadedString);\n\n    // ---\n    // from 'manager' account only\n    function addVerificationData(\n        address acc, //\n        uint _keyCertificateValidUntil, //\n        string _firstName, //\n        string _lastName, //\n        uint _birthDate, //\n        string _nationality) public returns (bool) {\n\n        // (!!!) only manager can add verification data\n        require(isManager[msg.sender]);\n\n        // check input\n        // (we can check this also on front end)\n        require(bytes(_firstName).length <= 32);\n        require(bytes(_lastName).length <= 32);\n        require(bytes(_nationality).length == 2);\n        // like \"IL\" or \"US\"\n\n        // check if signed string uploaded\n        require(signedStringUploadedOnUnixTime[acc] != 0);\n        // to make possible adding verification only one time:\n        require(verificationAddedOn[acc] == 0);\n\n        // data added to verification[acc] and to the corresponding mappings\n        // uint\n        verification[acc].keyCertificateValidUntil = keyCertificateValidUntil[acc] = _keyCertificateValidUntil;\n\n        // string\n        verification[acc].firstName = _firstName;\n        // bytes32\n        firstName[acc] = stringToBytes32(_firstName);\n\n        // string\n        verification[acc].lastName = _lastName;\n        // bytes32\n        lastName[acc] = stringToBytes32(_lastName);\n\n        // uint (UNIX time)\n        verification[acc].birthDate = birthDate[acc] = _birthDate;\n\n        // string\n        verification[acc].nationality = _nationality;\n        // bytes32\n        nationality[acc] = stringToBytes32(_nationality);\n\n        // uint (UNIX time)\n        verification[acc].verificationAddedOn = verificationAddedOn[acc] = block.timestamp;\n\n\n        VerificationAdded(\n            verification[acc].fingerprint,\n            acc,\n            keyCertificateValidUntil[acc],\n            verification[acc].firstName,\n            verification[acc].lastName,\n            birthDate[acc],\n            verification[acc].nationality,\n        // stringToSignBytes32[acc],\n        // signedString[acc],\n        // verificationAddedOn[acc],\n            msg.sender\n        );\n\n        return true;\n    }\n\n    event VerificationAdded (\n        string indexed forFingerprint, // (1) indexed\n        address indexed verifiedAccount, // (2) indexed\n        uint keyCertificateValidUntilUnixTime,\n        string userFirstName,\n        string userLastName,\n        uint userBirthDate,\n        string userNationality, // (3) indexed\n        address verificationAddedByAccount\n    );\n\n    // ---\n    // from user or 'manager' account\n    function revokeVerification(address acc, string _fingerprint) public returns (bool) {\n\n        require(msg.sender == acc || isManager[msg.sender]);\n        require(bytes(_fingerprint).length == 20);\n\n        // string\n        require(keccak256(verification[acc].fingerprint) == keccak256(_fingerprint));\n\n        verification[acc].revokedOn = revokedOn[acc] = block.timestamp;\n\n        // event\n        VerificationRevoked(\n            acc,\n            _fingerprint,\n            block.timestamp,\n            msg.sender\n        );\n\n        return true;\n    }\n\n    event VerificationRevoked (\n        address indexed revocedforAccount,\n        string indexed withFingerprint,\n        uint revokedOnUnixTime,\n        address indexed revokedBy\n    );\n\n\n    /* -------------------- Administrative functions : ---------------------- */\n\n    // to avoid mistakes owner (super admin) should be changed in two steps\n    // change is valid when accepted from new owner address\n    address private newOwner;\n    // only owner\n    function changeOwnerStart(address _newOwner) public returns (bool) {\n        require(msg.sender == owner);\n        newOwner = _newOwner;\n        return true;\n    } //\n    // only by new owner\n    function changeOwnerAccept() public returns (bool) {\n        require(msg.sender == newOwner);\n        OwnerChanged(owner, newOwner);\n        owner = newOwner;\n        return true;\n    } //\n    event OwnerChanged(address indexed from, address indexed to);\n\n    // ---\n    // only owner\n    function addManager(address acc) public returns (bool) {\n        require(msg.sender == owner);\n        isManager[acc] = true;\n        ManagerAdded(acc, msg.sender);\n        return true;\n    }\n\n    event ManagerAdded (address indexed added, address indexed addedBy);\n\n    // ---\n    // only owner\n    function removeManager(address manager) public returns (bool) {\n        require(msg.sender == owner);\n        isManager[manager] = false;\n        ManagerRemoved(manager, msg.sender);\n        return true;\n    }\n\n    event ManagerRemoved(address indexed removed, address indexed removedBy);\n\n    // ---\n\n    function setPriceForVerification(uint priceInWei) public returns (bool) {\n        // see converter on https://etherconverter.online\n\n        // only by manager\n        require(isManager[msg.sender]);\n        uint oldPrice = priceForVerificationInWei;\n        priceForVerificationInWei = priceInWei;\n        PriceChanged(oldPrice, priceForVerificationInWei, msg.sender);\n        return true;\n    }\n\n    event PriceChanged(uint from, uint to, address indexed changedBy);\n\n    // ---\n    // ! can be called by any user\n    function withdrawAllToWithdrawalAddress() public returns (bool) {\n        // http://solidity.readthedocs.io/en/develop/security-considerations.html#sending-and-receiving-ether\n        // about <address>.send(uint256 amount) and <address>.transfer(uint256 amount)        //\n        // see: http://solidity.readthedocs.io/en/latest/units-and-global-variables.html?highlight=transfer#address-related\n        // https://ethereum.stackexchange.com/questions/19341/address-send-vs-address-transfer-best-practice-usage\n        uint sum = this.balance;\n        if (!withdrawalAddress.send(this.balance)) {// makes withdrawal and returns true or false\n            Withdrawal(withdrawalAddress, sum, msg.sender, false);\n            return false;\n        }\n        Withdrawal(withdrawalAddress, sum, msg.sender, true);\n        return true;\n    }\n\n    event Withdrawal(address indexed to, uint sumInWei, address indexed by, bool success);\n\n    // only owner\n    function setWithdrawalAddress(address _withdrawalAddress) public returns (bool) {\n\n        require(msg.sender == owner);\n        require(!withdrawalAddressFixed);\n\n        WithdrawalAddressChanged(withdrawalAddress, _withdrawalAddress, msg.sender);\n\n        withdrawalAddress = _withdrawalAddress;\n\n        return true;\n    }\n\n    event WithdrawalAddressChanged(address indexed from, address indexed to, address indexed changedBy);\n\n    // ---\n    // only owner\n    function fixWithdrawalAddress(address _withdrawalAddress) public returns (bool) {\n\n        require(msg.sender == owner);\n\n        require(withdrawalAddress == _withdrawalAddress);\n        require(!withdrawalAddressFixed);\n\n        withdrawalAddressFixed = true;\n        WithdrawalAddressFixed(withdrawalAddress, msg.sender);\n\n        return true;\n    }\n\n    // one time only\n    event WithdrawalAddressFixed(address withdrawalAddressFixedAs, address fixedBy);\n\n}\n",
  "sourcePath": "/home/viktor/Dropbox/GIT/CRYPTONOMICA/Ethereum-IdentityVerification/src/main/resources/contracts/CryptonomicaVerification.sol",
  "compiler": {
    "name": "solc",
    "version": "0.4.19+commit.c4cbbb05.Emscripten.clang"
  },
  "schemaVersion": "1.0.1",
  "updatedAt": "2018-02-10T09:46:03.157Z"
}